{
  "contractName": "RPS",
  "abi": [
    {
      "constant": true,
      "inputs": [],
      "name": "roundCount",
      "outputs": [
        {
          "name": "",
          "type": "uint256"
        }
      ],
      "payable": false,
      "stateMutability": "view",
      "type": "function"
    },
    {
      "constant": true,
      "inputs": [],
      "name": "jackpot",
      "outputs": [
        {
          "name": "",
          "type": "uint256"
        }
      ],
      "payable": false,
      "stateMutability": "view",
      "type": "function"
    },
    {
      "constant": true,
      "inputs": [],
      "name": "gameRunning",
      "outputs": [
        {
          "name": "",
          "type": "bool"
        }
      ],
      "payable": false,
      "stateMutability": "view",
      "type": "function"
    },
    {
      "constant": true,
      "inputs": [],
      "name": "lotteryOn",
      "outputs": [
        {
          "name": "",
          "type": "bool"
        }
      ],
      "payable": false,
      "stateMutability": "view",
      "type": "function"
    },
    {
      "constant": false,
      "inputs": [],
      "name": "renounceOwnership",
      "outputs": [],
      "payable": false,
      "stateMutability": "nonpayable",
      "type": "function"
    },
    {
      "constant": true,
      "inputs": [],
      "name": "owner",
      "outputs": [
        {
          "name": "",
          "type": "address"
        }
      ],
      "payable": false,
      "stateMutability": "view",
      "type": "function"
    },
    {
      "constant": true,
      "inputs": [],
      "name": "minJackpot",
      "outputs": [
        {
          "name": "",
          "type": "uint256"
        }
      ],
      "payable": false,
      "stateMutability": "view",
      "type": "function"
    },
    {
      "constant": true,
      "inputs": [],
      "name": "minimumBet",
      "outputs": [
        {
          "name": "",
          "type": "uint256"
        }
      ],
      "payable": false,
      "stateMutability": "view",
      "type": "function"
    },
    {
      "constant": true,
      "inputs": [],
      "name": "lotteryRate",
      "outputs": [
        {
          "name": "",
          "type": "uint256"
        }
      ],
      "payable": false,
      "stateMutability": "view",
      "type": "function"
    },
    {
      "constant": false,
      "inputs": [
        {
          "name": "_newOwner",
          "type": "address"
        }
      ],
      "name": "transferOwnership",
      "outputs": [],
      "payable": false,
      "stateMutability": "nonpayable",
      "type": "function"
    },
    {
      "inputs": [],
      "payable": true,
      "stateMutability": "payable",
      "type": "constructor"
    },
    {
      "payable": true,
      "stateMutability": "payable",
      "type": "fallback"
    },
    {
      "anonymous": false,
      "inputs": [
        {
          "indexed": false,
          "name": "roundId",
          "type": "uint256"
        },
        {
          "indexed": false,
          "name": "betAmount",
          "type": "uint256"
        },
        {
          "indexed": true,
          "name": "player1",
          "type": "address"
        },
        {
          "indexed": false,
          "name": "isSolo",
          "type": "bool"
        }
      ],
      "name": "RoundCreated",
      "type": "event"
    },
    {
      "anonymous": false,
      "inputs": [
        {
          "indexed": false,
          "name": "roundId",
          "type": "uint256"
        },
        {
          "indexed": false,
          "name": "winner",
          "type": "address"
        },
        {
          "indexed": false,
          "name": "betAmount",
          "type": "uint256"
        },
        {
          "indexed": true,
          "name": "player1",
          "type": "address"
        },
        {
          "indexed": false,
          "name": "choice1",
          "type": "uint8"
        },
        {
          "indexed": false,
          "name": "player2",
          "type": "address"
        },
        {
          "indexed": false,
          "name": "choice2",
          "type": "uint8"
        }
      ],
      "name": "RoundResolved",
      "type": "event"
    },
    {
      "anonymous": false,
      "inputs": [
        {
          "indexed": false,
          "name": "paidAddress",
          "type": "address"
        },
        {
          "indexed": false,
          "name": "amount",
          "type": "uint256"
        }
      ],
      "name": "Payment",
      "type": "event"
    },
    {
      "anonymous": false,
      "inputs": [
        {
          "indexed": false,
          "name": "winner",
          "type": "address"
        },
        {
          "indexed": false,
          "name": "jackpot",
          "type": "uint256"
        }
      ],
      "name": "LotteryWin",
      "type": "event"
    },
    {
      "anonymous": false,
      "inputs": [
        {
          "indexed": true,
          "name": "previousOwner",
          "type": "address"
        }
      ],
      "name": "OwnershipRenounced",
      "type": "event"
    },
    {
      "anonymous": false,
      "inputs": [
        {
          "indexed": true,
          "name": "previousOwner",
          "type": "address"
        },
        {
          "indexed": true,
          "name": "newOwner",
          "type": "address"
        }
      ],
      "name": "OwnershipTransferred",
      "type": "event"
    },
    {
      "constant": true,
      "inputs": [
        {
          "name": "roundId",
          "type": "uint256"
        }
      ],
      "name": "getRoundInfo",
      "outputs": [
        {
          "name": "player1Address",
          "type": "address"
        },
        {
          "name": "player1Choice",
          "type": "uint8"
        },
        {
          "name": "player2Address",
          "type": "address"
        },
        {
          "name": "player2Choice",
          "type": "uint8"
        },
        {
          "name": "betAmount",
          "type": "uint256"
        },
        {
          "name": "winner",
          "type": "address"
        }
      ],
      "payable": false,
      "stateMutability": "view",
      "type": "function"
    },
    {
      "constant": false,
      "inputs": [],
      "name": "fundGame",
      "outputs": [],
      "payable": true,
      "stateMutability": "payable",
      "type": "function"
    },
    {
      "constant": false,
      "inputs": [],
      "name": "startGame",
      "outputs": [],
      "payable": false,
      "stateMutability": "nonpayable",
      "type": "function"
    },
    {
      "constant": false,
      "inputs": [],
      "name": "stopGame",
      "outputs": [],
      "payable": false,
      "stateMutability": "nonpayable",
      "type": "function"
    },
    {
      "constant": false,
      "inputs": [],
      "name": "stopLottery",
      "outputs": [],
      "payable": false,
      "stateMutability": "nonpayable",
      "type": "function"
    },
    {
      "constant": false,
      "inputs": [],
      "name": "startLottery",
      "outputs": [],
      "payable": false,
      "stateMutability": "nonpayable",
      "type": "function"
    },
    {
      "constant": false,
      "inputs": [
        {
          "name": "_myAddress",
          "type": "address"
        }
      ],
      "name": "withdrawFunds",
      "outputs": [],
      "payable": false,
      "stateMutability": "nonpayable",
      "type": "function"
    },
    {
      "constant": false,
      "inputs": [
        {
          "name": "_isSolo",
          "type": "bool"
        },
        {
          "name": "_choice",
          "type": "uint8"
        }
      ],
      "name": "createRound",
      "outputs": [
        {
          "name": "",
          "type": "uint256"
        }
      ],
      "payable": true,
      "stateMutability": "payable",
      "type": "function"
    },
    {
      "constant": false,
      "inputs": [
        {
          "name": "_roundId",
          "type": "uint256"
        },
        {
          "name": "_choice",
          "type": "uint8"
        }
      ],
      "name": "joinRound",
      "outputs": [],
      "payable": true,
      "stateMutability": "payable",
      "type": "function"
    },
    {
      "constant": false,
      "inputs": [
        {
          "name": "newLotteryRate",
          "type": "uint256"
        }
      ],
      "name": "setLotteryRate",
      "outputs": [],
      "payable": false,
      "stateMutability": "nonpayable",
      "type": "function"
    }
  ],
  "bytecode": "0x6080604052670de0b6b3a7640000600255655af3107a40006003556103e8600655336000806101000a81548173ffffffffffffffffffffffffffffffffffffffff021916908373ffffffffffffffffffffffffffffffffffffffff160217905550612a658061006f6000396000f300608060405260043610610112576000357c0100000000000000000000000000000000000000000000000000000000900463ffffffff16806306385b211461012f578063127f0b3f1461015c578063160344e21461018757806368742da61461019e5780636b31ee01146101e15780636e8c2caf1461020c5780636f1573c31461023b578063715018a61461026a57806383bd72ba1461028157806388c3ffb0146102985780638da5cb5b1461039c578063911d0189146103f3578063a34826cb1461041e578063c38a8afd1461044b578063d5c6249814610476578063d65ab5f21461048d578063e169bf6c146104a4578063f2564737146104ae578063f2fde38b146104d9578063f81310fb1461051c575b6101273460015461055f90919063ffffffff16565b600181905550005b34801561013b57600080fd5b5061015a6004803603810190808035906020019092919050505061057b565b005b34801561016857600080fd5b506101716105e0565b6040518082815260200191505060405180910390f35b34801561019357600080fd5b5061019c6105e6565b005b3480156101aa57600080fd5b506101df600480360381019080803573ffffffffffffffffffffffffffffffffffffffff16906020019092919050505061065e565b005b3480156101ed57600080fd5b506101f66107d5565b6040518082815260200191505060405180910390f35b34801561021857600080fd5b506102216107db565b604051808215151515815260200191505060405180910390f35b34801561024757600080fd5b506102506107ee565b604051808215151515815260200191505060405180910390f35b34801561027657600080fd5b5061027f610801565b005b34801561028d57600080fd5b50610296610903565b005b3480156102a457600080fd5b506102c360048036038101908080359060200190929190505050610a49565b604051808773ffffffffffffffffffffffffffffffffffffffff1673ffffffffffffffffffffffffffffffffffffffff16815260200186600281111561030557fe5b60ff1681526020018573ffffffffffffffffffffffffffffffffffffffff1673ffffffffffffffffffffffffffffffffffffffff16815260200184600281111561034b57fe5b60ff1681526020018381526020018273ffffffffffffffffffffffffffffffffffffffff1673ffffffffffffffffffffffffffffffffffffffff168152602001965050505050505060405180910390f35b3480156103a857600080fd5b506103b1610d0a565b604051808273ffffffffffffffffffffffffffffffffffffffff1673ffffffffffffffffffffffffffffffffffffffff16815260200191505060405180910390f35b3480156103ff57600080fd5b50610408610d2f565b6040518082815260200191505060405180910390f35b61044960048036038101908080359060200190929190803560ff169060200190929190505050610d35565b005b34801561045757600080fd5b5061046061111c565b6040518082815260200191505060405180910390f35b34801561048257600080fd5b5061048b611122565b005b34801561049957600080fd5b506104a261119a565b005b6104ac611438565b005b3480156104ba57600080fd5b506104c3611455565b6040518082815260200191505060405180910390f35b3480156104e557600080fd5b5061051a600480360381019080803573ffffffffffffffffffffffffffffffffffffffff16906020019092919050505061145b565b005b610549600480360381019080803515159060200190929190803560ff1690602001909291905050506114c2565b6040518082815260200191505060405180910390f35b6000818301905082811015151561057257fe5b80905092915050565b6000809054906101000a900473ffffffffffffffffffffffffffffffffffffffff1673ffffffffffffffffffffffffffffffffffffffff163373ffffffffffffffffffffffffffffffffffffffff161415156105d657600080fd5b8060068190555050565b60045481565b6000809054906101000a900473ffffffffffffffffffffffffffffffffffffffff1673ffffffffffffffffffffffffffffffffffffffff163373ffffffffffffffffffffffffffffffffffffffff1614151561064157600080fd5b6001600560016101000a81548160ff021916908315150217905550565b6000809054906101000a900473ffffffffffffffffffffffffffffffffffffffff1673ffffffffffffffffffffffffffffffffffffffff163373ffffffffffffffffffffffffffffffffffffffff161415156106b957600080fd5b6000801515600560009054906101000a900460ff16151514151561076b576040517f08c379a000000000000000000000000000000000000000000000000000000000815260040180806020018281038252602c8152602001807f46756e6374696f6e20617661696c61626c65206f6e6c79207768656e2067616d81526020017f652069732072756e6e696e67000000000000000000000000000000000000000081525060400191505060405180910390fd5b8173ffffffffffffffffffffffffffffffffffffffff166108fc3073ffffffffffffffffffffffffffffffffffffffff16319081150290604051600060405180830381858888f193505050501580156107c8573d6000803e3d6000fd5b5060006001819055505050565b60015481565b600560009054906101000a900460ff1681565b600560019054906101000a900460ff1681565b6000809054906101000a900473ffffffffffffffffffffffffffffffffffffffff1673ffffffffffffffffffffffffffffffffffffffff163373ffffffffffffffffffffffffffffffffffffffff1614151561085c57600080fd5b6000809054906101000a900473ffffffffffffffffffffffffffffffffffffffff1673ffffffffffffffffffffffffffffffffffffffff167ff8df31144d9c2f0f6b59d69b8b98abd5459d07f2742c4df920b25aae33c6482060405160405180910390a260008060006101000a81548173ffffffffffffffffffffffffffffffffffffffff021916908373ffffffffffffffffffffffffffffffffffffffff160217905550565b6000809054906101000a900473ffffffffffffffffffffffffffffffffffffffff1673ffffffffffffffffffffffffffffffffffffffff163373ffffffffffffffffffffffffffffffffffffffff1614151561095e57600080fd5b6001801515600560009054906101000a900460ff161515141515610a10576040517f08c379a000000000000000000000000000000000000000000000000000000000815260040180806020018281038252602c8152602001807f46756e6374696f6e20617661696c61626c65206f6e6c79207768656e2067616d81526020017f652069732072756e6e696e67000000000000000000000000000000000000000081525060400191505060405180910390fd5b6000600560006101000a81548160ff0219169083151502179055506000600560016101000a81548160ff02191690831515021790555050565b600080600080600080610a5a612971565b60076000898152602001908152602001600020610100604051908101604052908160008201606060405190810160405290816000820160009054906101000a900460ff166002811115610aa957fe5b6002811115610ab457fe5b81526020016001820154600019166000191681526020016002820160009054906101000a900473ffffffffffffffffffffffffffffffffffffffff1673ffffffffffffffffffffffffffffffffffffffff1673ffffffffffffffffffffffffffffffffffffffff1681525050815260200160038201606060405190810160405290816000820160009054906101000a900460ff166002811115610b5357fe5b6002811115610b5e57fe5b81526020016001820154600019166000191681526020016002820160009054906101000a900473ffffffffffffffffffffffffffffffffffffffff1673ffffffffffffffffffffffffffffffffffffffff1673ffffffffffffffffffffffffffffffffffffffff16815250508152602001600682015481526020016007820160009054906101000a900473ffffffffffffffffffffffffffffffffffffffff1673ffffffffffffffffffffffffffffffffffffffff1673ffffffffffffffffffffffffffffffffffffffff1681526020016007820160149054906101000a900460ff161515151581526020016007820160159054906101000a900460ff161515151581526020016008820160009054906101000a900473ffffffffffffffffffffffffffffffffffffffff1673ffffffffffffffffffffffffffffffffffffffff1673ffffffffffffffffffffffffffffffffffffffff1681526020016009820154815250509050806000015160400151816000015160000151826020015160400151836020015160000151846040015185606001519650965096509650965096505091939550919395565b6000809054906101000a900473ffffffffffffffffffffffffffffffffffffffff1681565b60025481565b60006001801515600560009054906101000a900460ff161515141515610de9576040517f08c379a000000000000000000000000000000000000000000000000000000000815260040180806020018281038252602c8152602001807f46756e6374696f6e20617661696c61626c65206f6e6c79207768656e2067616d81526020017f652069732072756e6e696e67000000000000000000000000000000000000000081525060400191505060405180910390fd5b600760008581526020019081526020016000209150600073ffffffffffffffffffffffffffffffffffffffff168260000160020160009054906101000a900473ffffffffffffffffffffffffffffffffffffffff1673ffffffffffffffffffffffffffffffffffffffff1614151515610eca576040517f08c379a00000000000000000000000000000000000000000000000000000000081526004018080602001828103825260148152602001807f526f756e6420646f6573206e6f7420657869737400000000000000000000000081525060200191505060405180910390fd5b600073ffffffffffffffffffffffffffffffffffffffff168260030160020160009054906101000a900473ffffffffffffffffffffffffffffffffffffffff1673ffffffffffffffffffffffffffffffffffffffff16148015610f3c57508160070160149054906101000a900460ff16155b1515610fb0576040517f08c379a00000000000000000000000000000000000000000000000000000000081526004018080602001828103825260168152602001807f526f756e6420616c72656164792066696e69736865640000000000000000000081525060200191505060405180910390fd5b81600601543410151515611052576040517f08c379a00000000000000000000000000000000000000000000000000000000081526004018080602001828103825260218152602001807f53656e64206174206c65617374207468652073616d652062657420616d6f756e81526020017f740000000000000000000000000000000000000000000000000000000000000081525060400191505060405180910390fd5b3373ffffffffffffffffffffffffffffffffffffffff166108fc836006015434039081150290604051600060405180830381858888f1935050505015801561109e573d6000803e3d6000fd5b50338260030160020160006101000a81548173ffffffffffffffffffffffffffffffffffffffff021916908373ffffffffffffffffffffffffffffffffffffffff160217905550828260030160000160006101000a81548160ff0219169083600281111561110857fe5b0217905550611116846118b6565b50505050565b60035481565b6000809054906101000a900473ffffffffffffffffffffffffffffffffffffffff1673ffffffffffffffffffffffffffffffffffffffff163373ffffffffffffffffffffffffffffffffffffffff1614151561117d57600080fd5b6000600560016101000a81548160ff021916908315150217905550565b6000809054906101000a900473ffffffffffffffffffffffffffffffffffffffff1673ffffffffffffffffffffffffffffffffffffffff163373ffffffffffffffffffffffffffffffffffffffff161415156111f557600080fd5b6000801515600560009054906101000a900460ff1615151415156112a7576040517f08c379a000000000000000000000000000000000000000000000000000000000815260040180806020018281038252602c8152602001807f46756e6374696f6e20617661696c61626c65206f6e6c79207768656e2067616d81526020017f652069732072756e6e696e67000000000000000000000000000000000000000081525060400191505060405180910390fd5b3073ffffffffffffffffffffffffffffffffffffffff163160015411151515611338576040517f08c379a000000000000000000000000000000000000000000000000000000000815260040180806020018281038252601d8152602001807f4a61636b706f74206c6f776572207468616e2053432062616c616e636500000081525060200191505060405180910390fd5b6002543073ffffffffffffffffffffffffffffffffffffffff163110158015611365575060025460015410155b15156113ff576040517f08c379a000000000000000000000000000000000000000000000000000000000815260040180806020018281038252602b8152602001807f4d696e696d756d204a61636b706f74206973206e656564656420666f7220737481526020017f617274696e672067616d6500000000000000000000000000000000000000000081525060400191505060405180910390fd5b6001600560006101000a81548160ff0219169083151502179055506001600560016101000a81548160ff02191690831515021790555050565b61144d3460015461055f90919063ffffffff16565b600181905550565b60065481565b6000809054906101000a900473ffffffffffffffffffffffffffffffffffffffff1673ffffffffffffffffffffffffffffffffffffffff163373ffffffffffffffffffffffffffffffffffffffff161415156114b657600080fd5b6114bf81611c7d565b50565b60008060006001801515600560009054906101000a900460ff161515141515611579576040517f08c379a000000000000000000000000000000000000000000000000000000000815260040180806020018281038252602c8152602001807f46756e6374696f6e20617661696c61626c65206f6e6c79207768656e2067616d81526020017f652069732072756e6e696e67000000000000000000000000000000000000000081525060400191505060405180910390fd5b60035434101515156115f3576040517f08c379a00000000000000000000000000000000000000000000000000000000081526004018080602001828103825260158152602001807f4e6f7420656e6f75676820616d6f756e7420626574000000000000000000000081525060200191505060405180910390fd5b6004600081548092919060010191905055506004549250600760008481526020019081526020016000209150338260000160020160006101000a81548173ffffffffffffffffffffffffffffffffffffffff021916908373ffffffffffffffffffffffffffffffffffffffff160217905550848260000160000160006101000a81548160ff0219169083600281111561168857fe5b0217905550348260060181905550858260070160156101000a81548160ff0219169083151502179055508160000160020160009054906101000a900473ffffffffffffffffffffffffffffffffffffffff1673ffffffffffffffffffffffffffffffffffffffff167fb3b1bde84bcee68ebfec5d442001436ebf6966913748ad5f78f4d21d9f93486f60045484600601548560070160159054906101000a900460ff166040518084815260200183815260200182151515158152602001935050505060405180910390a28160070160159054906101000a900460ff16156118aa5760015434111515156117e3576040517f08c379a000000000000000000000000000000000000000000000000000000000815260040180806020018281038252600c8152602001807f42657420746f6f2068696768000000000000000000000000000000000000000081525060200191505060405180910390fd5b308260030160020160006101000a81548173ffffffffffffffffffffffffffffffffffffffff021916908373ffffffffffffffffffffffffffffffffffffffff160217905550611831611d77565b8260030160000160006101000a81548160ff0219169083600281111561185357fe5b0217905550611861836118b6565b600560019054906101000a900460ff16156118a9576118a78260000160020160009054906101000a900473ffffffffffffffffffffffffffffffffffffffff1684611e74565b505b5b82935050505092915050565b60006007600083815260200190815260200160002090508060070160149054906101000a900460ff16151515611954576040517f08c379a00000000000000000000000000000000000000000000000000000000081526004018080602001828103825260148152602001807f526f756e6420616c726561647920636c6f73656400000000000000000000000081525060200191505060405180910390fd5b611aa681600001606060405190810160405290816000820160009054906101000a900460ff16600281111561198557fe5b600281111561199057fe5b81526020016001820154600019166000191681526020016002820160009054906101000a900473ffffffffffffffffffffffffffffffffffffffff1673ffffffffffffffffffffffffffffffffffffffff1673ffffffffffffffffffffffffffffffffffffffff168152505082600301606060405190810160405290816000820160009054906101000a900460ff166002811115611a2a57fe5b6002811115611a3557fe5b81526020016001820154600019166000191681526020016002820160009054906101000a900473ffffffffffffffffffffffffffffffffffffffff1673ffffffffffffffffffffffffffffffffffffffff1673ffffffffffffffffffffffffffffffffffffffff16815250506120b9565b8160070160006101000a81548173ffffffffffffffffffffffffffffffffffffffff021916908373ffffffffffffffffffffffffffffffffffffffff160217905550611af182612148565b8060000160020160009054906101000a900473ffffffffffffffffffffffffffffffffffffffff1673ffffffffffffffffffffffffffffffffffffffff167f7d8b4a984b7fa465226fb3cb2eb9c5110227b5afed1649f904bbdb67bc9a2dd9838360070160009054906101000a900473ffffffffffffffffffffffffffffffffffffffff1684600601548560000160000160009054906101000a900460ff168660030160020160009054906101000a900473ffffffffffffffffffffffffffffffffffffffff168760030160000160009054906101000a900460ff16604051808781526020018673ffffffffffffffffffffffffffffffffffffffff1673ffffffffffffffffffffffffffffffffffffffff168152602001858152602001846002811115611c1b57fe5b60ff1681526020018373ffffffffffffffffffffffffffffffffffffffff1673ffffffffffffffffffffffffffffffffffffffff168152602001826002811115611c6157fe5b60ff168152602001965050505050505060405180910390a25050565b600073ffffffffffffffffffffffffffffffffffffffff168173ffffffffffffffffffffffffffffffffffffffff1614151515611cb957600080fd5b8073ffffffffffffffffffffffffffffffffffffffff166000809054906101000a900473ffffffffffffffffffffffffffffffffffffffff1673ffffffffffffffffffffffffffffffffffffffff167f8be0079c531659141344cd1fd0a4f28419497f9722a3daafe3b4186f6b6457e060405160405180910390a3806000806101000a81548173ffffffffffffffffffffffffffffffffffffffff021916908373ffffffffffffffffffffffffffffffffffffffff16021790555050565b60006003600454336001430340604051602001808481526020018373ffffffffffffffffffffffffffffffffffffffff1673ffffffffffffffffffffffffffffffffffffffff166c01000000000000000000000000028152601401826000191660001916815260200193505050506040516020818303038152906040526040518082805190602001908083835b602083101515611e295780518252602082019150602081019050602083039250611e04565b6001836020036101000a038019825116818451168082178552505050505050905001915050604051809103902060019004811515611e6357fe5b066002811115611e6f57fe5b905090565b6000806000600654600454866001430340604051602001808481526020018373ffffffffffffffffffffffffffffffffffffffff1673ffffffffffffffffffffffffffffffffffffffff166c01000000000000000000000000028152601401826000191660001916815260200193505050506040516020818303038152906040526040518082805190602001908083835b602083101515611f2a5780518252602082019150602081019050602083039250611f05565b6001836020036101000a038019825116818451168082178552505050505050905001915050604051809103902060019004811515611f6457fe5b0614156120ad5760076000848152602001908152602001600020905060008160080160009054906101000a900473ffffffffffffffffffffffffffffffffffffffff1673ffffffffffffffffffffffffffffffffffffffff16141515612058576040517f08c379a00000000000000000000000000000000000000000000000000000000081526004018080602001828103825260218152602001807f4f6e6c79206f6e65206c6f74657272792077696e6e65722070657220726f756e81526020017f640000000000000000000000000000000000000000000000000000000000000081525060400191505060405180910390fd5b838160080160006101000a81548173ffffffffffffffffffffffffffffffffffffffff021916908373ffffffffffffffffffffffffffffffffffffffff1602179055506120a48461273b565b600191506120b2565b600091505b5092915050565b6000816000015160028111156120cb57fe5b60036001856000015160028111156120df57fe5b018115156120e957fe5b0614156120fc5781604001519050612142565b8160000151600281111561210c57fe5b600360028560000151600281111561212057fe5b0181151561212a57fe5b06141561213d5782604001519050612142565b600090505b92915050565b60008060008060006007600087815260200190815260200160002094508460070160009054906101000a900473ffffffffffffffffffffffffffffffffffffffff1693508460070160149054906101000a900460ff16151515612213576040517f08c379a00000000000000000000000000000000000000000000000000000000081526004018080602001828103825260148152602001807f526f756e6420616c726561647920636c6f73656400000000000000000000000081525060200191505060405180910390fd5b60018560070160146101000a81548160ff02191690831515021790555060015492503073ffffffffffffffffffffffffffffffffffffffff16319150620f424061226c611388876006015461292090919063ffffffff16565b81151561227557fe5b0490508460070160159054906101000a900460ff16156124c257600073ffffffffffffffffffffffffffffffffffffffff168473ffffffffffffffffffffffffffffffffffffffff161415612358578460000160020160009054906101000a900473ffffffffffffffffffffffffffffffffffffffff1673ffffffffffffffffffffffffffffffffffffffff166108fc828760060154039081150290604051600060405180830381858888f19350505050158015612337573d6000803e3d6000fd5b5061234d8160015461055f90919063ffffffff16565b6001819055506124bd565b3073ffffffffffffffffffffffffffffffffffffffff168473ffffffffffffffffffffffffffffffffffffffff1614156123b0576123a5856006015460015461055f90919063ffffffff16565b6001819055506124bc565b6123c9856006015460015461295890919063ffffffff16565b6001819055508373ffffffffffffffffffffffffffffffffffffffff166108fc826124026002896006015461292090919063ffffffff16565b039081150290604051600060405180830381858888f1935050505015801561242e573d6000803e3d6000fd5b507fd4f43975feb89f48dd30cabbb32011045be187d1e11c8ea9faa43efc352825198482876006015403604051808373ffffffffffffffffffffffffffffffffffffffff1673ffffffffffffffffffffffffffffffffffffffff1681526020018281526020019250505060405180910390a16124b58160015461055f90919063ffffffff16565b6001819055505b5b6126f0565b600073ffffffffffffffffffffffffffffffffffffffff168473ffffffffffffffffffffffffffffffffffffffff161415612602578460000160020160009054906101000a900473ffffffffffffffffffffffffffffffffffffffff1673ffffffffffffffffffffffffffffffffffffffff166108fc828760060154039081150290604051600060405180830381858888f1935050505015801561256a573d6000803e3d6000fd5b508460030160020160009054906101000a900473ffffffffffffffffffffffffffffffffffffffff1673ffffffffffffffffffffffffffffffffffffffff166108fc828760060154039081150290604051600060405180830381858888f193505050501580156125de573d6000803e3d6000fd5b506125f78160020260015461055f90919063ffffffff16565b6001819055506126ef565b8373ffffffffffffffffffffffffffffffffffffffff166108fc826126356002896006015461292090919063ffffffff16565b039081150290604051600060405180830381858888f19350505050158015612661573d6000803e3d6000fd5b507fd4f43975feb89f48dd30cabbb32011045be187d1e11c8ea9faa43efc352825198482876006015403604051808373ffffffffffffffffffffffffffffffffffffffff1673ffffffffffffffffffffffffffffffffffffffff1681526020018281526020019250505060405180910390a16126e88160015461055f90919063ffffffff16565b6001819055505b5b846006015460020283036001541015801561272b5750846006015460020282033073ffffffffffffffffffffffffffffffffffffffff163110155b151561273357fe5b505050505050565b3073ffffffffffffffffffffffffffffffffffffffff1631600154111515156127f2576040517f08c379a00000000000000000000000000000000000000000000000000000000081526004018080602001828103825260278152602001807f4a61636b706f7420697320686967686572207468616e20636f6e74726163742081526020017f62616c616e63650000000000000000000000000000000000000000000000000081525060400191505060405180910390fd5b8073ffffffffffffffffffffffffffffffffffffffff166108fc6001549081150290604051600060405180830381858888f1935050505015801561283a573d6000803e3d6000fd5b5060006001819055507f59eb56f0aaebc4c2e1de6e254bc52af79350363a072c9ef59851f0d0861a964281600154604051808373ffffffffffffffffffffffffffffffffffffffff1673ffffffffffffffffffffffffffffffffffffffff1681526020018281526020019250505060405180910390a17fd4f43975feb89f48dd30cabbb32011045be187d1e11c8ea9faa43efc3528251981600154604051808373ffffffffffffffffffffffffffffffffffffffff1673ffffffffffffffffffffffffffffffffffffffff1681526020018281526020019250505060405180910390a150565b6000808314156129335760009050612952565b818302905081838281151561294457fe5b0414151561294e57fe5b8090505b92915050565b600082821115151561296657fe5b818303905092915050565b610180604051908101604052806129866129f3565b81526020016129936129f3565b815260200160008152602001600073ffffffffffffffffffffffffffffffffffffffff168152602001600015158152602001600015158152602001600073ffffffffffffffffffffffffffffffffffffffff168152602001600081525090565b60606040519081016040528060006002811115612a0c57fe5b815260200160008019168152602001600073ffffffffffffffffffffffffffffffffffffffff16815250905600a165627a7a723058202aaf7ddc865864cfb611389dbcd516b440ca4c707b4aee34e0d62b9491e6faa00029",
  "source": "pragma solidity ^0.4.25;\n\nimport \"zeppelin-solidity/contracts/ownership/Ownable.sol\";\nimport \"zeppelin-solidity/contracts/math/SafeMath.sol\";\n\n\n/** @title RPS - RockPaperScissor P2P game, playing also for a jackpot.\n  * @author rggentil\n  * @notice This is just a simple game done mostly for learning solidity\n            and web3 development, do not use betting real value since\n            it has some known vulnerabilities.\n  * @dev My first smartcontract, so probably code could be improved.\n */\ncontract RPS is Ownable {\n\n    using SafeMath for uint;\n\n    uint public jackpot;\n    uint public minJackpot = 1 ether;\n    uint public minimumBet = 0.0001 ether;\n    uint public roundCount;\n    bool public gameRunning;\n    bool public lotteryOn;\n\n    uint public lotteryRate = 1000;\n\n    // Since we can't use decimals, represent the rate as ppm (part-per-million)\n    // Used constant that saves gas, but it might be a good idea to set it as public\n    // and be able to adjust the fee rate.\n    uint constant jackpotFeeRate = 5000;\n    uint constant feeUnits = 1000000;\n\n    /* Not used yet\n    uint maxJackpot;\n    uint businessFee;\n    */\n\n    enum Choice { Rock, Paper, Scissors }\n\n    struct Player {\n        Choice choice;\n        bytes32 playerHash;\n        address playerAddress;\n    }\n\n    struct Round {\n        Player player1;\n        Player player2;\n        uint betAmount;\n        address winner;\n        bool isClosed;\n        bool isSolo;\n        address lotteryWinner;\n        uint currentJackpot;\n    }\n\n    mapping(uint=>Round) rounds;\n\n    // We could add another mapping to check rounds per address:\n    // mapping(address=>uint[])\n\n    event RoundCreated(\n        uint roundId,\n        uint betAmount,\n        address indexed player1,\n        bool isSolo\n    );\n\n    event RoundResolved(\n        uint roundId,\n        address winner,\n        uint betAmount,\n        address indexed player1,\n        Choice choice1,\n        address player2,\n        Choice choice2\n    );\n\n    event Payment(address paidAddress, uint amount);\n    event LotteryWin(address winner, uint jackpot);\n\n    /** @dev Modifier for functions available only when game is running\n      * @param _isRunning bool to check is we need the game is running or not\n    */\n    modifier gameIsRunning(bool _isRunning) {\n        require(gameRunning == _isRunning, \"Function available only when game is running\");\n        _;\n    }\n\n    constructor() public payable {\n        // We could handle games through constructor and setting variables like\n        // minimum bet, max jackpot, fees, etc.\n    }\n\n    /** @notice Fallback, just in case of receiving funds, to the jackpot\n    */\n    function () public payable {\n        jackpot = jackpot.add(msg.value);\n    }\n\n    /** @notice Get info from rounds.\n                TODO: This function should be removed in final deployment because\n                it facilitates getting other player's choice before betting.\n      * @dev This function is implemented mainly for debugging purpose.\n             Actually getting info from front-end is managed through events.\n      * @param roundId round id number that identify a round\n      * @return player1Address address of player1\n      * @return player1Choice choice of player1\n      * @return player2Address address of player2\n      * @return player2Choice choice of player2\n      * @return betAmount amount of the bet of this round, in wei.\n      * @return winner address of the winner, it's 0x0 if not finished or draw\n    */\n    function getRoundInfo(\n        uint roundId\n    )\n        external\n        view\n        returns(\n            address player1Address,\n            Choice player1Choice,\n            address player2Address,\n            Choice player2Choice,\n            uint betAmount,\n            address winner\n        )\n    {\n        Round memory myRound = rounds[roundId];\n        return (\n            myRound.player1.playerAddress,\n            myRound.player1.choice,\n            myRound.player2.playerAddress,\n            myRound.player2.choice,\n            myRound.betAmount,\n            myRound.winner\n        );\n    }\n\n    /** @notice Payable, to fund game by adding ethers to contract and to the jackpot\n      * @dev It's just the same as fallback function.\n    */\n    function fundGame() public payable {\n        jackpot = jackpot.add(msg.value);\n    }\n\n    /** @notice When we have everything ready owner can start game so anyone can play. Also it starts lottery.\n                Also for restarting game after having stopped it\n    */\n    function startGame() public onlyOwner gameIsRunning(false){\n        require(jackpot <= address(this).balance, \"Jackpot lower than SC balance\");\n        require((address(this).balance >= minJackpot) && (jackpot >= minJackpot), \"Minimum Jackpot is needed for starting game\");\n        gameRunning = true;\n        lotteryOn = true;\n    }\n\n    /** @notice Function for emergengies. Also it stops lottery.\n    */\n    function stopGame() public onlyOwner gameIsRunning(true){\n        gameRunning = false;\n        lotteryOn = false;\n    }\n\n    /** @notice Stop lottery (this means stop playing for jackpot)\n    */\n    function stopLottery() public onlyOwner {\n        lotteryOn = false;\n    }\n\n    /** @notice Start lottery (this means playing for jackpot)\n    */\n    function startLottery() public onlyOwner {\n        lotteryOn = true;\n    }\n\n    /** @notice Withdraw funds in case of an emergengy. Set jackpot to 0.\n      * @param _myAddress addres to withdraw funds to\n    */\n    function withdrawFunds(address _myAddress) public onlyOwner gameIsRunning(false) {\n        _myAddress.transfer(address(this).balance);\n        jackpot = 0;\n    }\n\n    /** @notice Function called each time we want to play.\n                Payable function thar receives the bet amount.\n      * @param _isSolo bool value that represents playing vs House/smartcontract\n                       or vs other player\n      * @param _choice choose Choice enum value: ROCK, PAPER, SCISSOR\n      * @return roundId id number that identify the round created\n     */\n    function createRound(bool _isSolo, Choice _choice)\n        public\n        gameIsRunning(true)\n        payable\n        returns(uint)\n    {\n        require(msg.value >= minimumBet, \"Not enough amount bet\");\n\n        roundCount++;\n        uint roundId = roundCount;\n        Round storage round = rounds[roundId];\n        round.player1.playerAddress = msg.sender;\n        round.player1.choice = _choice;\n        round.betAmount = msg.value;\n        round.isSolo = _isSolo;\n\n        emit RoundCreated(\n            roundCount,\n            round.betAmount,\n            round.player1.playerAddress,\n            round.isSolo\n        );\n\n        if (round.isSolo) {\n            require(msg.value <= jackpot, \"Bet too high\");\n            round.player2.playerAddress = address(this);\n            round.player2.choice = getRandomChoice();\n            _resolveRound(roundId);\n            if (lotteryOn) {\n                _playLottery(round.player1.playerAddress, roundId);\n            }\n        }\n\n        return roundId;\n    }\n\n    /** @notice Join to an existing round created by other player\n                Payable function thar receives the bet amount.\n      * @param _roundId id number that identify the round to join\n      * @param _choice choose Choice enum value: ROCK, PAPER, SCISSOR\n     */\n    function joinRound(uint _roundId, Choice _choice) public gameIsRunning(true) payable {\n        Round storage myRound = rounds[_roundId];  // Pointer to round\n        require(myRound.player1.playerAddress != address(0), \"Round does not exist\");\n        require(myRound.player2.playerAddress == address(0) && !myRound.isClosed, \"Round already finished\");\n        require(msg.value >= myRound.betAmount, \"Send at least the same bet amount\");\n\n        // Send back the excess of the amount sent minus the real bet amount\n        // Use Safe Math, althouth this should never be overflow bc substract uints is another uint\n        // Using transfer should prevent from fallback reentrancy, but...\n        // Also, a reentrancy would have to send more value than betAmount, I think an attack has no sense\n        // but I would have to analyze it a bit more.\n        msg.sender.transfer(msg.value - myRound.betAmount);  // No need to use SafeMath since this can't be negative\n\n        myRound.player2.playerAddress = msg.sender;\n        myRound.player2.choice = _choice;\n        _resolveRound(_roundId);\n\n        // I need to study better how to handle lottery when playing two players. I think there could be\n        // easy attacks to jackpot. Not availale for now.\n        // if (lotteryOn) {\n        //     _playLottery(myRound.player1.playerAddress, _roundId);\n        //     _playLottery(myRound.player2.playerAddress, _roundId);\n        // }\n\n    }\n\n    /** @notice Funtion that generates randomness for the game, used when playing vs House and playing\n                for the jackpot. This implementation is not safe since it can be easyly attacked.\n      * @dev It uses the blockhash of the last block, with two other params but it is not safe for a gambling\n            platform. Change randomness in case we want it to be realistic. Probably it needs Oraclize.\n      * @return Choice enum value (ROCK, PAPER, SCISSOR) chosen randomly.\n    */\n    function getRandomChoice() private view returns(Choice){\n        return Choice(uint(keccak256(abi.encodePacked(roundCount, msg.sender, blockhash(block.number - 1)))) % 3);\n    }\n\n    /** @notice Resolve round, both vs House or vs other player.\n                Pay winner if any.\n      * @param _roundId id number that identify the round to resolve\n     */\n    function _resolveRound(uint _roundId) private {\n        Round storage myRound = rounds[_roundId];  // Pointer to round\n        require(!myRound.isClosed, \"Round already closed\");\n        myRound.winner = _checkWinner(myRound.player1, myRound.player2);\n        _payRound(_roundId);\n        emit RoundResolved(\n            _roundId,\n            myRound.winner,\n            myRound.betAmount,\n            myRound.player1.playerAddress,\n            myRound.player1.choice,\n            myRound.player2.playerAddress,\n            myRound.player2.choice\n        );\n    }\n\n    /** @notice Pay winner of the round resolved.\n      * @param _roundId id number that identify the round to resolve\n     */\n    function _payRound(uint _roundId) private {\n        Round storage myRound = rounds[_roundId];  // Pointer to round\n        address winner = myRound.winner;\n\n        // I think this is necessary to avoid possible reentrancy attacks (although we're using transfer).\n        // I also think we are protected since this function is private, the one which calls this one is\n        // also private and the parent you need to send value to join round.\n        require(!myRound.isClosed, \"Round already closed\");\n        myRound.isClosed = true;\n\n        uint inititalJackpot = jackpot;\n        uint initialBalance = address(this).balance;\n        uint jackpotFee = myRound.betAmount.mul(jackpotFeeRate) / feeUnits;\n\n        if(myRound.isSolo) {  // 1 player mode\n            if (winner == address(0)){  // Draw, player recevies what he bet minus fee\n                myRound.player1.playerAddress.transfer(myRound.betAmount - jackpotFee);\n                jackpot = jackpot.add(jackpotFee);\n            } else if (winner == address(this)) {  // Player looses, bet to jackpot\n                jackpot = jackpot.add(myRound.betAmount);\n            } else {  // Player wins\n                // SafeMath is not necessary, jackpot and betAmount are uint, and the substraction can only be uint.\n                // Used to show using a Library. Consider to change it to use -, since it saves same gas.\n                jackpot = jackpot.sub(myRound.betAmount);\n                winner.transfer(myRound.betAmount.mul(2) - jackpotFee);\n                emit Payment(winner, myRound.betAmount - jackpotFee);\n                jackpot = jackpot.add(jackpotFee);\n            }\n        } else { // 2 players mode\n            if (winner == address(0)){  // Draw, players receive what they bet minus jackpot fee\n                myRound.player1.playerAddress.transfer(myRound.betAmount - jackpotFee);\n                myRound.player2.playerAddress.transfer(myRound.betAmount - jackpotFee);\n                jackpot = jackpot.add(2 * jackpotFee);\n            } else {  // Bet to the winner minus jackpot fee\n                winner.transfer(myRound.betAmount.mul(2) -jackpotFee);\n                emit Payment(winner, myRound.betAmount - jackpotFee);\n                jackpot = jackpot.add(jackpotFee);\n            }\n        }\n\n        // Additional check por security for reentrancy (kind of formal verification)\n        // These additional checks may not be necessary since we are using transfer that limits gas to 2300,\n        // so in the final deployment we could ommit all these additional checks in order to save same uncessary gas\n        assert((jackpot >= inititalJackpot - (2 * myRound.betAmount)) && (address(this).balance >= initialBalance - (2 * myRound.betAmount)));\n    }\n\n    /** @notice Check winner of the round, both vs House or vs other player.\n      * @param player1 player struct (with player's address and choice)\n      * @param player2 player struct (with player's address and choice)\n      * @return address of the winner\n     */\n    function _checkWinner(Player player1, Player player2) private pure returns(address) {\n        if ((uint(player1.choice) + 1) % 3 == uint(player2.choice)) {\n            return player2.playerAddress;\n        } else if ((uint(player1.choice) + 2) % 3 == uint(player2.choice)) {\n            return player1.playerAddress;\n        } else {\n            return address(0);\n        }\n    }\n\n    /** @notice Set the lottery rate in percentage, how easy is to hit the jackpot\n      * @dev Mostly for testing porpuse. It should be removed in final deployment\n      * @param newLotteryRate new lottery rate\n     */\n    // Mostly for testing porpuse.\n    function setLotteryRate(uint newLotteryRate) public onlyOwner {\n        lotteryRate = newLotteryRate;\n    }\n\n    /** @notice Play lottery for the round\n      * @dev TODO: Current randomness is not the best way for gambling since it can be attacked by miners.\n             TODO: It is needed to implement a mechanism that assures that existing rounds can be paid altoudh\n             someone has hit the jakpot. Curerntly if someone hits the jackpot he/she gets all value of the contract\n      * @param playerAddress address of the player\n      * @param _roundId id number that identify the round to resolve\n      * @return if player wins the lottery or not\n     */\n\n    function _playLottery(address playerAddress, uint _roundId) private returns (bool) {\n\n        if (uint(keccak256(abi.encodePacked(roundCount, playerAddress, blockhash(block.number - 1)))) % lotteryRate == 0) {\n            Round storage myRound = rounds[_roundId];  // Pointer to round\n            require(myRound.lotteryWinner == 0, \"Only one loterry winner per round\");\n            myRound.lotteryWinner = playerAddress;\n            _payLotteryWinner(playerAddress);\n            return true;\n        }\n        return false;\n    }\n\n    /** @notice Pay winner of the lottery\n      * @param _winnerAddress address of the winner\n     */\n    function _payLotteryWinner(address _winnerAddress) private {\n        require(jackpot <= address(this).balance, \"Jackpot is higher than contract balance\");\n\n        // I think we dont need to avoid reentrancy since no problem using transfer.\n        _winnerAddress.transfer(jackpot);\n        jackpot = 0;\n        emit LotteryWin(_winnerAddress, jackpot);\n        emit Payment(_winnerAddress, jackpot);\n    }\n\n}\n",
  "sourcePath": "/home/rggentil/Documents/master_ethereum/design_and_development/modulo4/mydapp/RPS/contracts/RPS.sol",
  "compiler": {
    "name": "solc",
    "version": "0.4.25+commit.59dbf8f1.Emscripten.clang"
  },
  "schemaVersion": "2.0.1",
  "updatedAt": "2018-12-12T19:53:43.256Z"
}