{
  "contractName": "RPS",
  "abi": [
    {
      "constant": true,
      "inputs": [],
      "name": "roundCount",
      "outputs": [
        {
          "name": "",
          "type": "uint256"
        }
      ],
      "payable": false,
      "stateMutability": "view",
      "type": "function"
    },
    {
      "constant": true,
      "inputs": [],
      "name": "gameRunning",
      "outputs": [
        {
          "name": "",
          "type": "bool"
        }
      ],
      "payable": false,
      "stateMutability": "view",
      "type": "function"
    },
    {
      "constant": false,
      "inputs": [],
      "name": "renounceOwnership",
      "outputs": [],
      "payable": false,
      "stateMutability": "nonpayable",
      "type": "function"
    },
    {
      "constant": true,
      "inputs": [],
      "name": "owner",
      "outputs": [
        {
          "name": "",
          "type": "address"
        }
      ],
      "payable": false,
      "stateMutability": "view",
      "type": "function"
    },
    {
      "constant": false,
      "inputs": [
        {
          "name": "_newOwner",
          "type": "address"
        }
      ],
      "name": "transferOwnership",
      "outputs": [],
      "payable": false,
      "stateMutability": "nonpayable",
      "type": "function"
    },
    {
      "inputs": [],
      "payable": true,
      "stateMutability": "payable",
      "type": "constructor"
    },
    {
      "anonymous": false,
      "inputs": [
        {
          "indexed": false,
          "name": "choice1",
          "type": "bytes32"
        },
        {
          "indexed": false,
          "name": "choice2",
          "type": "uint256"
        }
      ],
      "name": "MyLog",
      "type": "event"
    },
    {
      "anonymous": false,
      "inputs": [
        {
          "indexed": false,
          "name": "roundId",
          "type": "uint256"
        },
        {
          "indexed": false,
          "name": "betAmount",
          "type": "uint256"
        },
        {
          "indexed": true,
          "name": "player1",
          "type": "address"
        },
        {
          "indexed": false,
          "name": "choice1",
          "type": "uint8"
        }
      ],
      "name": "RoundCreated",
      "type": "event"
    },
    {
      "anonymous": false,
      "inputs": [
        {
          "indexed": false,
          "name": "roundId",
          "type": "uint256"
        },
        {
          "indexed": false,
          "name": "winner",
          "type": "address"
        },
        {
          "indexed": false,
          "name": "betAmount",
          "type": "uint256"
        },
        {
          "indexed": false,
          "name": "player1",
          "type": "address"
        },
        {
          "indexed": false,
          "name": "choice1",
          "type": "uint8"
        },
        {
          "indexed": false,
          "name": "player2",
          "type": "address"
        },
        {
          "indexed": false,
          "name": "choice2",
          "type": "uint8"
        }
      ],
      "name": "RoundResolved",
      "type": "event"
    },
    {
      "anonymous": false,
      "inputs": [
        {
          "indexed": false,
          "name": "paidAddress",
          "type": "address"
        },
        {
          "indexed": false,
          "name": "amount",
          "type": "uint256"
        }
      ],
      "name": "Payment",
      "type": "event"
    },
    {
      "anonymous": false,
      "inputs": [
        {
          "indexed": false,
          "name": "winner",
          "type": "address"
        },
        {
          "indexed": false,
          "name": "jackpot",
          "type": "uint256"
        }
      ],
      "name": "LotteryPlayed",
      "type": "event"
    },
    {
      "anonymous": false,
      "inputs": [
        {
          "indexed": true,
          "name": "previousOwner",
          "type": "address"
        }
      ],
      "name": "OwnershipRenounced",
      "type": "event"
    },
    {
      "anonymous": false,
      "inputs": [
        {
          "indexed": true,
          "name": "previousOwner",
          "type": "address"
        },
        {
          "indexed": true,
          "name": "newOwner",
          "type": "address"
        }
      ],
      "name": "OwnershipTransferred",
      "type": "event"
    },
    {
      "constant": false,
      "inputs": [],
      "name": "fundGame",
      "outputs": [],
      "payable": true,
      "stateMutability": "payable",
      "type": "function"
    },
    {
      "constant": false,
      "inputs": [],
      "name": "startGame",
      "outputs": [],
      "payable": false,
      "stateMutability": "nonpayable",
      "type": "function"
    },
    {
      "constant": false,
      "inputs": [
        {
          "name": "_isSolo",
          "type": "bool"
        },
        {
          "name": "_choice",
          "type": "uint8"
        }
      ],
      "name": "createRound",
      "outputs": [
        {
          "name": "",
          "type": "uint256"
        }
      ],
      "payable": true,
      "stateMutability": "payable",
      "type": "function"
    },
    {
      "constant": true,
      "inputs": [],
      "name": "getWinner",
      "outputs": [
        {
          "name": "",
          "type": "address"
        }
      ],
      "payable": false,
      "stateMutability": "view",
      "type": "function"
    },
    {
      "constant": false,
      "inputs": [
        {
          "name": "_roundId",
          "type": "uint256"
        },
        {
          "name": "_choice",
          "type": "uint8"
        }
      ],
      "name": "joinRound",
      "outputs": [],
      "payable": true,
      "stateMutability": "payable",
      "type": "function"
    },
    {
      "constant": true,
      "inputs": [],
      "name": "getBCChoice",
      "outputs": [
        {
          "name": "",
          "type": "uint256"
        }
      ],
      "payable": false,
      "stateMutability": "view",
      "type": "function"
    },
    {
      "constant": true,
      "inputs": [],
      "name": "getJackpot",
      "outputs": [
        {
          "name": "",
          "type": "uint256"
        }
      ],
      "payable": false,
      "stateMutability": "view",
      "type": "function"
    },
    {
      "constant": true,
      "inputs": [],
      "name": "getBalance",
      "outputs": [
        {
          "name": "",
          "type": "uint256"
        }
      ],
      "payable": false,
      "stateMutability": "view",
      "type": "function"
    },
    {
      "constant": true,
      "inputs": [
        {
          "name": "roundId",
          "type": "uint256"
        }
      ],
      "name": "getRoundInfo",
      "outputs": [
        {
          "name": "player1Address",
          "type": "address"
        },
        {
          "name": "player1Choice",
          "type": "uint8"
        },
        {
          "name": "player2Address",
          "type": "address"
        },
        {
          "name": "player2Choice",
          "type": "uint8"
        },
        {
          "name": "betAmount",
          "type": "uint256"
        },
        {
          "name": "winner",
          "type": "address"
        },
        {
          "name": "blockNumber",
          "type": "uint256"
        }
      ],
      "payable": false,
      "stateMutability": "view",
      "type": "function"
    }
  ],
  "bytecode": "0x60806040526706f05b59d3b2000060025566038d7ea4c68000600655336000806101000a81548173ffffffffffffffffffffffffffffffffffffffff021916908373ffffffffffffffffffffffffffffffffffffffff1602179055506753444835ec580000600381905550611dc7806100796000396000f3006080604052600436106100d0576000357c0100000000000000000000000000000000000000000000000000000000900463ffffffff16806312065fe0146100d5578063127f0b3f1461010057806328493f921461012b5780636e8c2caf14610156578063715018a61461018557806388c3ffb01461019c5780638da5cb5b146102a75780638e7ea5b2146102fe5780639329066c14610355578063a34826cb14610380578063d65ab5f2146103ad578063e169bf6c146103c4578063f2fde38b146103ce578063f81310fb14610411575b600080fd5b3480156100e157600080fd5b506100ea610454565b6040518082815260200191505060405180910390f35b34801561010c57600080fd5b50610115610473565b6040518082815260200191505060405180910390f35b34801561013757600080fd5b50610140610479565b6040518082815260200191505060405180910390f35b34801561016257600080fd5b5061016b610495565b604051808215151515815260200191505060405180910390f35b34801561019157600080fd5b5061019a6104a8565b005b3480156101a857600080fd5b506101c7600480360381019080803590602001909291905050506105aa565b604051808873ffffffffffffffffffffffffffffffffffffffff1673ffffffffffffffffffffffffffffffffffffffff16815260200187600281111561020957fe5b60ff1681526020018673ffffffffffffffffffffffffffffffffffffffff1673ffffffffffffffffffffffffffffffffffffffff16815260200185600281111561024f57fe5b60ff1681526020018481526020018373ffffffffffffffffffffffffffffffffffffffff1673ffffffffffffffffffffffffffffffffffffffff16815260200182815260200197505050505050505060405180910390f35b3480156102b357600080fd5b506102bc610841565b604051808273ffffffffffffffffffffffffffffffffffffffff1673ffffffffffffffffffffffffffffffffffffffff16815260200191505060405180910390f35b34801561030a57600080fd5b50610313610866565b604051808273ffffffffffffffffffffffffffffffffffffffff1673ffffffffffffffffffffffffffffffffffffffff16815260200191505060405180910390f35b34801561036157600080fd5b5061036a610890565b6040518082815260200191505060405180910390f35b6103ab60048036038101908080359060200190929190803560ff16906020019092919050505061089a565b005b3480156103b957600080fd5b506103c2610c3a565b005b6103cc610e7f565b005b3480156103da57600080fd5b5061040f600480360381019080803573ffffffffffffffffffffffffffffffffffffffff169060200190929190505050610e91565b005b61043e600480360381019080803515159060200190929190803560ff169060200190929190505050610ef8565b6040518082815260200191505060405180910390f35b60003073ffffffffffffffffffffffffffffffffffffffff1631905090565b60085481565b6000600360014303406001900481151561048f57fe5b06905090565b600a60009054906101000a900460ff1681565b6000809054906101000a900473ffffffffffffffffffffffffffffffffffffffff1673ffffffffffffffffffffffffffffffffffffffff163373ffffffffffffffffffffffffffffffffffffffff1614151561050357600080fd5b6000809054906101000a900473ffffffffffffffffffffffffffffffffffffffff1673ffffffffffffffffffffffffffffffffffffffff167ff8df31144d9c2f0f6b59d69b8b98abd5459d07f2742c4df920b25aae33c6482060405160405180910390a260008060006101000a81548173ffffffffffffffffffffffffffffffffffffffff021916908373ffffffffffffffffffffffffffffffffffffffff160217905550565b60008060008060008060006105bd611ce5565b600960008a815260200190815260200160002060e0604051908101604052908160008201606060405190810160405290816000820160009054906101000a900460ff16600281111561060b57fe5b600281111561061657fe5b81526020016001820154600019166000191681526020016002820160009054906101000a900473ffffffffffffffffffffffffffffffffffffffff1673ffffffffffffffffffffffffffffffffffffffff1673ffffffffffffffffffffffffffffffffffffffff1681525050815260200160038201606060405190810160405290816000820160009054906101000a900460ff1660028111156106b557fe5b60028111156106c057fe5b81526020016001820154600019166000191681526020016002820160009054906101000a900473ffffffffffffffffffffffffffffffffffffffff1673ffffffffffffffffffffffffffffffffffffffff1673ffffffffffffffffffffffffffffffffffffffff16815250508152602001600682015481526020016007820160009054906101000a900460ff16600281111561075857fe5b600281111561076357fe5b81526020016007820160019054906101000a900460ff161515151581526020016007820160029054906101000a900473ffffffffffffffffffffffffffffffffffffffff1673ffffffffffffffffffffffffffffffffffffffff1673ffffffffffffffffffffffffffffffffffffffff1681526020016007820160169054906101000a900460ff161515151581525050905080600001516040015181600001516000015182602001516040015183602001516000015184604001518560a0015160014303975097509750975097509750975050919395979092949650565b6000809054906101000a900473ffffffffffffffffffffffffffffffffffffffff1681565b6000600760009054906101000a900473ffffffffffffffffffffffffffffffffffffffff16905090565b6000600154905090565b6000600960008481526020019081526020016000209050600073ffffffffffffffffffffffffffffffffffffffff168160000160020160009054906101000a900473ffffffffffffffffffffffffffffffffffffffff1673ffffffffffffffffffffffffffffffffffffffff161415151561097d576040517f08c379a00000000000000000000000000000000000000000000000000000000081526004018080602001828103825260148152602001807f526f756e6420646f6573206e6f7420657869737400000000000000000000000081525060200191505060405180910390fd5b600073ffffffffffffffffffffffffffffffffffffffff168160030160020160009054906101000a900473ffffffffffffffffffffffffffffffffffffffff1673ffffffffffffffffffffffffffffffffffffffff16141515610a48576040517f08c379a00000000000000000000000000000000000000000000000000000000081526004018080602001828103825260168152602001807f526f756e6420616c72656164792066696e69736865640000000000000000000081525060200191505060405180910390fd5b80600601543410151515610aea576040517f08c379a00000000000000000000000000000000000000000000000000000000081526004018080602001828103825260218152602001807f53656e64206174206c65617374207468652073616d652062657420616d6f756e81526020017f740000000000000000000000000000000000000000000000000000000000000081525060400191505060405180910390fd5b8060070160019054906101000a900460ff16151515610b71576040517f08c379a00000000000000000000000000000000000000000000000000000000081526004018080602001828103825260168152602001807f526f756e6420616c72656164792066696e69736865640000000000000000000081525060200191505060405180910390fd5b3373ffffffffffffffffffffffffffffffffffffffff166108fc826006015434039081150290604051600060405180830381858888f19350505050158015610bbd573d6000803e3d6000fd5b50338160030160020160006101000a81548173ffffffffffffffffffffffffffffffffffffffff021916908373ffffffffffffffffffffffffffffffffffffffff160217905550818160030160000160006101000a81548160ff02191690836002811115610c2757fe5b0217905550610c35836112c6565b505050565b6000809054906101000a900473ffffffffffffffffffffffffffffffffffffffff1673ffffffffffffffffffffffffffffffffffffffff163373ffffffffffffffffffffffffffffffffffffffff16141515610c9557600080fd5b600a60009054906101000a900460ff16151515610d1a576040517f08c379a00000000000000000000000000000000000000000000000000000000081526004018080602001828103825260148152602001807f47616d6520616c7265616479207374617274656400000000000000000000000081525060200191505060405180910390fd5b3073ffffffffffffffffffffffffffffffffffffffff163160015411151515610dab576040517f08c379a000000000000000000000000000000000000000000000000000000000815260040180806020018281038252601e8152602001807f4a61636b706f7420686967686572207468616e2053432062616c616e6365000081525060200191505060405180910390fd5b6002543073ffffffffffffffffffffffffffffffffffffffff163110151515610e62576040517f08c379a000000000000000000000000000000000000000000000000000000000815260040180806020018281038252602b8152602001807f4d696e696d756d204a61636b706f74206973206e656564656420666f7220737481526020017f617274696e672067616d6500000000000000000000000000000000000000000081525060400191505060405180910390fd5b6001600a60006101000a81548160ff021916908315150217905550565b34600160008282540192505081905550565b6000809054906101000a900473ffffffffffffffffffffffffffffffffffffffff1673ffffffffffffffffffffffffffffffffffffffff163373ffffffffffffffffffffffffffffffffffffffff16141515610eec57600080fd5b610ef58161172c565b50565b600080600a60009054906101000a900460ff161515610fa5576040517f08c379a000000000000000000000000000000000000000000000000000000000815260040180806020018281038252602c8152602001807f46756e6374696f6e20617661696c61626c65206f6e6c79207768656e2067616d81526020017f652069732072756e6e696e67000000000000000000000000000000000000000081525060400191505060405180910390fd5b600654341015151561101f576040517f08c379a00000000000000000000000000000000000000000000000000000000081526004018080602001828103825260158152602001807f4e6f7420656e6f75676820616d6f756e7420626574000000000000000000000081525060200191505060405180910390fd5b6008600081548092919060010191905055506009600060085481526020019081526020016000209050338160000160020160006101000a81548173ffffffffffffffffffffffffffffffffffffffff021916908373ffffffffffffffffffffffffffffffffffffffff160217905550828160000160000160006101000a81548160ff021916908360028111156110b157fe5b0217905550348160060181905550838160070160166101000a81548160ff0219169083151502179055508060000160020160009054906101000a900473ffffffffffffffffffffffffffffffffffffffff1673ffffffffffffffffffffffffffffffffffffffff167f8389bfa2bbb86e9db6331f9776a5195e5a139efab722a28a59cf7a84669fb58e60085483600601548460000160000160009054906101000a900460ff166040518084815260200183815260200182600281111561117357fe5b60ff168152602001935050505060405180910390a28060070160169054906101000a900460ff161561129e576001543411151515611219576040517f08c379a000000000000000000000000000000000000000000000000000000000815260040180806020018281038252600c8152602001807f42657420746f6f2068696768000000000000000000000000000000000000000081525060200191505060405180910390fd5b308160030160020160006101000a81548173ffffffffffffffffffffffffffffffffffffffff021916908373ffffffffffffffffffffffffffffffffffffffff160217905550611267611826565b8160030160000160006101000a81548160ff0219169083600281111561128957fe5b02179055506112996008546112c6565b6112ba565b6001600a60006101000a81548160ff0219169083151502179055505b60085491505092915050565b60006009600083815260200190815260200160002090508060070160019054906101000a900460ff16151515611364576040517f08c379a00000000000000000000000000000000000000000000000000000000081526004018080602001828103825260148152602001807f526f756e6420616c726561647920636c6f73656400000000000000000000000081525060200191505060405180910390fd5b60018160070160016101000a81548160ff0219169083151502179055506114d381600001606060405190810160405290816000820160009054906101000a900460ff1660028111156113b257fe5b60028111156113bd57fe5b81526020016001820154600019166000191681526020016002820160009054906101000a900473ffffffffffffffffffffffffffffffffffffffff1673ffffffffffffffffffffffffffffffffffffffff1673ffffffffffffffffffffffffffffffffffffffff168152505082600301606060405190810160405290816000820160009054906101000a900460ff16600281111561145757fe5b600281111561146257fe5b81526020016001820154600019166000191681526020016002820160009054906101000a900473ffffffffffffffffffffffffffffffffffffffff1673ffffffffffffffffffffffffffffffffffffffff1673ffffffffffffffffffffffffffffffffffffffff168152505061184d565b8160070160026101000a81548173ffffffffffffffffffffffffffffffffffffffff021916908373ffffffffffffffffffffffffffffffffffffffff1602179055508060070160029054906101000a900473ffffffffffffffffffffffffffffffffffffffff16600760006101000a81548173ffffffffffffffffffffffffffffffffffffffff021916908373ffffffffffffffffffffffffffffffffffffffff160217905550611583826118dc565b7f7d8b4a984b7fa465226fb3cb2eb9c5110227b5afed1649f904bbdb67bc9a2dd9828260070160029054906101000a900473ffffffffffffffffffffffffffffffffffffffff1683600601548460000160020160009054906101000a900473ffffffffffffffffffffffffffffffffffffffff168560000160000160009054906101000a900460ff168660030160020160009054906101000a900473ffffffffffffffffffffffffffffffffffffffff168760030160000160009054906101000a900460ff16604051808881526020018773ffffffffffffffffffffffffffffffffffffffff1673ffffffffffffffffffffffffffffffffffffffff1681526020018681526020018573ffffffffffffffffffffffffffffffffffffffff1673ffffffffffffffffffffffffffffffffffffffff1681526020018460028111156116c957fe5b60ff1681526020018373ffffffffffffffffffffffffffffffffffffffff1673ffffffffffffffffffffffffffffffffffffffff16815260200182600281111561170f57fe5b60ff16815260200197505050505050505060405180910390a15050565b600073ffffffffffffffffffffffffffffffffffffffff168173ffffffffffffffffffffffffffffffffffffffff161415151561176857600080fd5b8073ffffffffffffffffffffffffffffffffffffffff166000809054906101000a900473ffffffffffffffffffffffffffffffffffffffff1673ffffffffffffffffffffffffffffffffffffffff167f8be0079c531659141344cd1fd0a4f28419497f9722a3daafe3b4186f6b6457e060405160405180910390a3806000806101000a81548173ffffffffffffffffffffffffffffffffffffffff021916908373ffffffffffffffffffffffffffffffffffffffff16021790555050565b6000600360014303406001900481151561183c57fe5b06600281111561184857fe5b905090565b60008160000151600281111561185f57fe5b600360018560000151600281111561187357fe5b0181151561187d57fe5b06141561189057816040015190506118d6565b816000015160028111156118a057fe5b60036002856000015160028111156118b457fe5b018115156118be57fe5b0614156118d157826040015190506118d6565b600090505b92915050565b6000806009600084815260200190815260200160002091508160070160029054906101000a900473ffffffffffffffffffffffffffffffffffffffff1690508160070160169054906101000a900460ff1615611b0357600073ffffffffffffffffffffffffffffffffffffffff168173ffffffffffffffffffffffffffffffffffffffff1614156119de578160000160020160009054906101000a900473ffffffffffffffffffffffffffffffffffffffff1673ffffffffffffffffffffffffffffffffffffffff166108fc83600601549081150290604051600060405180830381858888f193505050501580156119d8573d6000803e3d6000fd5b50611afe565b3073ffffffffffffffffffffffffffffffffffffffff168173ffffffffffffffffffffffffffffffffffffffff161415611a2b578160060154600160008282540192505081905550611afd565b81600601546001600082825403925050819055508073ffffffffffffffffffffffffffffffffffffffff166108fc83600601546002029081150290604051600060405180830381858888f19350505050158015611a8c573d6000803e3d6000fd5b507fd4f43975feb89f48dd30cabbb32011045be187d1e11c8ea9faa43efc35282519818360060154604051808373ffffffffffffffffffffffffffffffffffffffff1673ffffffffffffffffffffffffffffffffffffffff1681526020018281526020019250505060405180910390a15b5b611ce0565b600073ffffffffffffffffffffffffffffffffffffffff168173ffffffffffffffffffffffffffffffffffffffff161415611c21578160000160020160009054906101000a900473ffffffffffffffffffffffffffffffffffffffff1673ffffffffffffffffffffffffffffffffffffffff166108fc83600601549081150290604051600060405180830381858888f19350505050158015611ba9573d6000803e3d6000fd5b508160030160020160009054906101000a900473ffffffffffffffffffffffffffffffffffffffff1673ffffffffffffffffffffffffffffffffffffffff166108fc83600601549081150290604051600060405180830381858888f19350505050158015611c1b573d6000803e3d6000fd5b50611cdf565b8073ffffffffffffffffffffffffffffffffffffffff166108fc83600601546002029081150290604051600060405180830381858888f19350505050158015611c6e573d6000803e3d6000fd5b507fd4f43975feb89f48dd30cabbb32011045be187d1e11c8ea9faa43efc35282519818360060154604051808373ffffffffffffffffffffffffffffffffffffffff1673ffffffffffffffffffffffffffffffffffffffff1681526020018281526020019250505060405180910390a15b5b505050565b61016060405190810160405280611cfa611d55565b8152602001611d07611d55565b81526020016000815260200160006002811115611d2057fe5b8152602001600015158152602001600073ffffffffffffffffffffffffffffffffffffffff1681526020016000151581525090565b60606040519081016040528060006002811115611d6e57fe5b815260200160008019168152602001600073ffffffffffffffffffffffffffffffffffffffff16815250905600a165627a7a72305820b8a492bfed237b522feda667d6c34f6ecc851abeec0f87f2b3cbf7caf29dfa040029",
  "source": "pragma solidity ^0.4.25;\n\nimport \"zeppelin-solidity/contracts/ownership/Ownable.sol\";\n\n// /**\n//  * @title Ownable\n//  * @dev The Ownable contract has an owner address, and provides basic authorization control\n//  * functions, this simplifies the implementation of \"user permissions\".\n//  */\n// contract Ownable {\n//     address private _owner;\n\n//     event OwnershipTransferred(\n//         address indexed previousOwner,\n//         address indexed newOwner\n//     );\n\n//     /**\n//     * @dev The Ownable constructor sets the original `owner` of the contract to the sender\n//     * account.\n//     */\n//     constructor() internal {\n//         _owner = msg.sender;\n//         emit OwnershipTransferred(address(0), _owner);\n//     }\n\n//     /**\n//     * @return the address of the owner.\n//     */\n//     function owner() public view returns(address) {\n//         return _owner;\n//     }\n\n//     /**\n//     * @dev Throws if called by any account other than the owner.\n//     */\n//     modifier onlyOwner() {\n//         require(isOwner());\n//         _;\n//     }\n\n//     /**\n//     * @return true if `msg.sender` is the owner of the contract.\n//     */\n//     function isOwner() public view returns(bool) {\n//         return msg.sender == _owner;\n//     }\n\n//     /**\n//     * @dev Allows the current owner to relinquish control of the contract.\n//     * @notice Renouncing to ownership will leave the contract without an owner.\n//     * It will not be possible to call the functions with the `onlyOwner`\n//     * modifier anymore.\n//     */\n//     function renounceOwnership() public onlyOwner {\n//         emit OwnershipTransferred(_owner, address(0));\n//         _owner = address(0);\n//     }\n\n//     /**\n//     * @dev Allows the current owner to transfer control of the contract to a newOwner.\n//     * @param newOwner The address to transfer ownership to.\n//     */\n//     function transferOwnership(address newOwner) public onlyOwner {\n//         _transferOwnership(newOwner);\n//     }\n\n//     /**\n//     * @dev Transfers control of the contract to a newOwner.\n//     * @param newOwner The address to transfer ownership to.\n//     */\n//     function _transferOwnership(address newOwner) internal {\n//         require(newOwner != address(0));\n//         emit OwnershipTransferred(_owner, newOwner);\n//         _owner = newOwner;\n//     }\n// }\n\n\ncontract RPS is Ownable {\n    \n    uint jackpot;\n    uint minJackpot = 500 finney;\n    uint maxJackpot;\n    uint feePercent;\n    uint feeForJackpot;\n    uint mininumBet = 1 finney;\n    address lastWinner;\n    \n    enum Choice { Rock, Paper, Scissors }\n    \n    struct Player {\n        Choice choice;\n        bytes32 playerHash;\n        address playerAddress;\n    }\n    \n    struct Round {\n        Player player1;\n        Player player2;\n        uint betAmount;\n        Choice choice;\n        bool isClosed; // need to check round closed before paying\n        address winner;\n        bool isSolo;\n    }\n    \n    uint public roundCount;\n    mapping(uint=>Round) rounds;\n    \n    // We could add another mapping to check rounds per address:\n    // mapping(address=>uint[])\n    \n    bool public gameRunning;\n    bool roundInProgress;\n    uint lastJackpot;\n    \n\n    event MyLog(bytes32 choice1, uint choice2);\n    event RoundCreated(uint roundId, uint betAmount, address indexed player1, Choice choice1); // possibility to used indexes\n    event RoundResolved(uint roundId, address winner, uint betAmount, address player1, Choice choice1, address player2, Choice choice2);\n    event Payment(address paidAddress, uint amount);\n    event LotteryPlayed(address winner, uint jackpot);\n\n    \n    constructor() public payable {\n        maxJackpot = 6 ether;\n    }\n    \n    function fundGame() public payable {\n        jackpot += msg.value;\n    }\n    \n    modifier gameIsRunning() {\n        require(gameRunning, \"Function available only when game is running\");\n        _;\n    }\n    \n    function startGame() public onlyOwner {\n        require(!gameRunning, \"Game already started\");\n        require(jackpot <= address(this).balance, \"Jackpot higher than SC balance\");\n        require(address(this).balance >= minJackpot, \"Minimum Jackpot is needed for starting game\");\n        gameRunning = true;\n    }\n    \n    function createRound(bool _isSolo, Choice _choice) \n        public \n        gameIsRunning\n        payable\n        returns(uint) {\n        // require (!roundInProgress, \"Another round in progress\");\n        require(msg.value >= mininumBet, \"Not enough amount bet\");\n        // roundInProgress = true;\n        roundCount++;\n        Round storage round = rounds[roundCount];\n        round.player1.playerAddress = msg.sender;\n        round.player1.choice = _choice;\n        round.betAmount = msg.value;\n        round.isSolo = _isSolo;\n\n        emit RoundCreated(roundCount, round.betAmount, round.player1.playerAddress, round.player1.choice);\n        \n        if (round.isSolo) {\n            require(msg.value <= jackpot, \"Bet too high\");\n            round.player2.playerAddress = address(this);\n            round.player2.choice = getRandomChoice();\n            resolveRound(roundCount);\n        } else {\n            gameRunning = true;\n        }\n\n        return roundCount;\n        \n    }\n\n    function getWinner() external view returns(address) {\n        return lastWinner;\n    }\n    \n    // Is safe enough that we provide the choice to be part of enum or maybe there\n    // is any trick to be able to provide something out of choices? May it's better to\n    // add a check to see if in its range\n    function joinRound(uint _roundId, Choice _choice) public payable{\n        Round storage myRound = rounds[_roundId];  // Pointer to round\n        require(myRound.player1.playerAddress != address(0), \"Round does not exist\");\n        require(myRound.player2.playerAddress == address(0), \"Round already finished\");\n        require(msg.value >= myRound.betAmount, \"Send at least the same bet amount\");\n        require(!myRound.isClosed, \"Round already finished\");\n        msg.sender.transfer(msg.value - myRound.betAmount);  // Use Safe Math, althouth this should never be overflow bc substract uints is another uint\n        \n        myRound.player2.playerAddress = msg.sender;\n        myRound.player2.choice = _choice;\n        resolveRound(_roundId);\n    }\n    \n    function resolveRound(uint _roundId) internal {\n        Round storage myRound = rounds[_roundId];  // Pointer to round\n        require(!myRound.isClosed, \"Round already closed\");\n        myRound.isClosed = true;\n        myRound.winner = _checkWinner(myRound.player1, myRound.player2);\n        lastWinner = myRound.winner;\n        _payWinner(_roundId);\n        //roundInProgress = false;\n        emit RoundResolved(\n            _roundId,\n            myRound.winner,\n            myRound.betAmount,\n            myRound.player1.playerAddress,\n            myRound.player1.choice,\n            myRound.player2.playerAddress,\n            myRound.player2.choice\n        );\n    }\n    \n    function _payWinner(uint _roundId) internal {  // Maybe it can return true or false for the lottery\n        // We might want to add some checkers, requires or asserts, to see that the value \n        // trasnfered is what it is...\n        Round storage myRound = rounds[_roundId];  // Pointer to round\n        address winner = myRound.winner;\n        \n        if(myRound.isSolo) {  // 1 player mode\n            if (winner == address(0)){  // Draw, player recevies what he bet\n                myRound.player1.playerAddress.transfer(myRound.betAmount);\n            }\n            else if (winner == address(this)) {  // Player looses, bet to jackpot\n                jackpot += myRound.betAmount;  \n            } else {  // Player wins\n                jackpot -= myRound.betAmount;\n                winner.transfer(2 * myRound.betAmount);\n                emit Payment(winner, myRound.betAmount);\n            }\n        } else { // 2 players mode\n            if (winner == address(0)){  // Draw, players receive what they bet\n                myRound.player1.playerAddress.transfer(myRound.betAmount);\n                myRound.player2.playerAddress.transfer(myRound.betAmount);\n            } else {  // Bet to the winner\n                winner.transfer(2 * myRound.betAmount);\n                emit Payment(winner, myRound.betAmount);\n            }\n        }\n        \n\n    }\n    \n    // Change randomness in case we want it to be realistic. Probably it needs Oraclize.\n    function getRandomChoice() internal view returns(Choice){\n        return Choice(uint(blockhash(block.number - 1)) % 3);\n    }\n    \n    function _checkWinner(Player player1, Player player2) private pure returns(address) {\n        if ((uint(player1.choice) + 1) % 3 == uint(player2.choice)) {\n            return player2.playerAddress;\n        } else if ((uint(player1.choice) + 2) % 3 == uint(player2.choice)) {\n            return player1.playerAddress;\n        } else {\n            return address(0);\n        }\n    }\n\n    function getBCChoice() external view returns(uint) {\n        return uint(blockhash(block.number - 1)) % 3;\n    }\n    \n    \n    function getJackpot() external view returns(uint) {\n        return jackpot;\n    }\n    \n    function getBalance() external view returns(uint) {\n        return address(this).balance;\n    }\n    \n    function getRoundInfo(\n        uint roundId\n    )\n        external\n        view\n        returns(\n            address player1Address,\n            Choice player1Choice,\n            address player2Address,\n            Choice player2Choice,\n            uint betAmount,\n            address winner,\n            uint blockNumber\n        )\n    {\n        Round memory myRound = rounds[roundId];\n        return (\n            myRound.player1.playerAddress,\n            myRound.player1.choice,\n            myRound.player2.playerAddress,\n            myRound.player2.choice,\n            myRound.betAmount,\n            myRound.winner,\n            block.number - 1\n        );\n    }\n    \n    // Careful to call this function only when there is no round without result\n    // function playLottery() internal {}\n}\n",
  "sourcePath": "/home/rggentil/Documents/master_ethereum/design_and_development/modulo4/mydapp/RPS/contracts/RPS.sol",
  "compiler": {
    "name": "solc",
    "version": "0.4.25+commit.59dbf8f1.Emscripten.clang"
  },
  "schemaVersion": "2.0.1",
  "updatedAt": "2018-11-10T07:21:09.370Z"
}