{
  "contractName": "RPS",
  "abi": [
    {
      "constant": true,
      "inputs": [],
      "name": "roundCount",
      "outputs": [
        {
          "name": "",
          "type": "uint256"
        }
      ],
      "payable": false,
      "stateMutability": "view",
      "type": "function"
    },
    {
      "constant": true,
      "inputs": [],
      "name": "jackpot",
      "outputs": [
        {
          "name": "",
          "type": "uint256"
        }
      ],
      "payable": false,
      "stateMutability": "view",
      "type": "function"
    },
    {
      "constant": true,
      "inputs": [],
      "name": "gameRunning",
      "outputs": [
        {
          "name": "",
          "type": "bool"
        }
      ],
      "payable": false,
      "stateMutability": "view",
      "type": "function"
    },
    {
      "constant": false,
      "inputs": [],
      "name": "renounceOwnership",
      "outputs": [],
      "payable": false,
      "stateMutability": "nonpayable",
      "type": "function"
    },
    {
      "constant": true,
      "inputs": [],
      "name": "owner",
      "outputs": [
        {
          "name": "",
          "type": "address"
        }
      ],
      "payable": false,
      "stateMutability": "view",
      "type": "function"
    },
    {
      "constant": true,
      "inputs": [],
      "name": "minJackpot",
      "outputs": [
        {
          "name": "",
          "type": "uint256"
        }
      ],
      "payable": false,
      "stateMutability": "view",
      "type": "function"
    },
    {
      "constant": false,
      "inputs": [
        {
          "name": "_newOwner",
          "type": "address"
        }
      ],
      "name": "transferOwnership",
      "outputs": [],
      "payable": false,
      "stateMutability": "nonpayable",
      "type": "function"
    },
    {
      "inputs": [],
      "payable": true,
      "stateMutability": "payable",
      "type": "constructor"
    },
    {
      "payable": true,
      "stateMutability": "payable",
      "type": "fallback"
    },
    {
      "anonymous": false,
      "inputs": [
        {
          "indexed": false,
          "name": "roundId",
          "type": "uint256"
        },
        {
          "indexed": false,
          "name": "betAmount",
          "type": "uint256"
        },
        {
          "indexed": true,
          "name": "player1",
          "type": "address"
        },
        {
          "indexed": false,
          "name": "choice1",
          "type": "uint8"
        }
      ],
      "name": "RoundCreated",
      "type": "event"
    },
    {
      "anonymous": false,
      "inputs": [
        {
          "indexed": false,
          "name": "roundId",
          "type": "uint256"
        },
        {
          "indexed": false,
          "name": "winner",
          "type": "address"
        },
        {
          "indexed": false,
          "name": "betAmount",
          "type": "uint256"
        },
        {
          "indexed": false,
          "name": "player1",
          "type": "address"
        },
        {
          "indexed": false,
          "name": "choice1",
          "type": "uint8"
        },
        {
          "indexed": false,
          "name": "player2",
          "type": "address"
        },
        {
          "indexed": false,
          "name": "choice2",
          "type": "uint8"
        }
      ],
      "name": "RoundResolved",
      "type": "event"
    },
    {
      "anonymous": false,
      "inputs": [
        {
          "indexed": false,
          "name": "paidAddress",
          "type": "address"
        },
        {
          "indexed": false,
          "name": "amount",
          "type": "uint256"
        }
      ],
      "name": "Payment",
      "type": "event"
    },
    {
      "anonymous": false,
      "inputs": [
        {
          "indexed": false,
          "name": "winner",
          "type": "address"
        },
        {
          "indexed": false,
          "name": "jackpot",
          "type": "uint256"
        }
      ],
      "name": "LotteryPlayed",
      "type": "event"
    },
    {
      "anonymous": false,
      "inputs": [
        {
          "indexed": true,
          "name": "previousOwner",
          "type": "address"
        }
      ],
      "name": "OwnershipRenounced",
      "type": "event"
    },
    {
      "anonymous": false,
      "inputs": [
        {
          "indexed": true,
          "name": "previousOwner",
          "type": "address"
        },
        {
          "indexed": true,
          "name": "newOwner",
          "type": "address"
        }
      ],
      "name": "OwnershipTransferred",
      "type": "event"
    },
    {
      "constant": true,
      "inputs": [
        {
          "name": "roundId",
          "type": "uint256"
        }
      ],
      "name": "getRoundInfo",
      "outputs": [
        {
          "name": "player1Address",
          "type": "address"
        },
        {
          "name": "player1Choice",
          "type": "uint8"
        },
        {
          "name": "player2Address",
          "type": "address"
        },
        {
          "name": "player2Choice",
          "type": "uint8"
        },
        {
          "name": "betAmount",
          "type": "uint256"
        },
        {
          "name": "winner",
          "type": "address"
        }
      ],
      "payable": false,
      "stateMutability": "view",
      "type": "function"
    },
    {
      "constant": false,
      "inputs": [],
      "name": "fundGame",
      "outputs": [],
      "payable": true,
      "stateMutability": "payable",
      "type": "function"
    },
    {
      "constant": false,
      "inputs": [],
      "name": "startGame",
      "outputs": [],
      "payable": false,
      "stateMutability": "nonpayable",
      "type": "function"
    },
    {
      "constant": false,
      "inputs": [
        {
          "name": "_isSolo",
          "type": "bool"
        },
        {
          "name": "_choice",
          "type": "uint8"
        }
      ],
      "name": "createRound",
      "outputs": [
        {
          "name": "",
          "type": "uint256"
        }
      ],
      "payable": true,
      "stateMutability": "payable",
      "type": "function"
    },
    {
      "constant": false,
      "inputs": [
        {
          "name": "_roundId",
          "type": "uint256"
        },
        {
          "name": "_choice",
          "type": "uint8"
        }
      ],
      "name": "joinRound",
      "outputs": [],
      "payable": true,
      "stateMutability": "payable",
      "type": "function"
    }
  ],
  "bytecode": "0x6080604052670de0b6b3a7640000600255655af3107a4000600355336000806101000a81548173ffffffffffffffffffffffffffffffffffffffff021916908373ffffffffffffffffffffffffffffffffffffffff160217905550611c96806100696000396000f3006080604052600436106100ba576000357c0100000000000000000000000000000000000000000000000000000000900463ffffffff168063127f0b3f146100cc5780636b31ee01146100f75780636e8c2caf14610122578063715018a61461015157806388c3ffb0146101685780638da5cb5b1461026c578063911d0189146102c3578063a34826cb146102ee578063d65ab5f21461031b578063e169bf6c14610332578063f2fde38b1461033c578063f81310fb1461037f575b34600160008282540192505081905550005b3480156100d857600080fd5b506100e16103c2565b6040518082815260200191505060405180910390f35b34801561010357600080fd5b5061010c6103c8565b6040518082815260200191505060405180910390f35b34801561012e57600080fd5b506101376103ce565b604051808215151515815260200191505060405180910390f35b34801561015d57600080fd5b506101666103e1565b005b34801561017457600080fd5b50610193600480360381019080803590602001909291905050506104e3565b604051808773ffffffffffffffffffffffffffffffffffffffff1673ffffffffffffffffffffffffffffffffffffffff1681526020018660028111156101d557fe5b60ff1681526020018573ffffffffffffffffffffffffffffffffffffffff1673ffffffffffffffffffffffffffffffffffffffff16815260200184600281111561021b57fe5b60ff1681526020018381526020018273ffffffffffffffffffffffffffffffffffffffff1673ffffffffffffffffffffffffffffffffffffffff168152602001965050505050505060405180910390f35b34801561027857600080fd5b50610281610743565b604051808273ffffffffffffffffffffffffffffffffffffffff1673ffffffffffffffffffffffffffffffffffffffff16815260200191505060405180910390f35b3480156102cf57600080fd5b506102d8610768565b6040518082815260200191505060405180910390f35b61031960048036038101908080359060200190929190803560ff16906020019092919050505061076e565b005b34801561032757600080fd5b50610330610aa2565b005b61033a610cf7565b005b34801561034857600080fd5b5061037d600480360381019080803573ffffffffffffffffffffffffffffffffffffffff169060200190929190505050610d09565b005b6103ac600480360381019080803515159060200190929190803560ff169060200190929190505050610d70565b6040518082815260200191505060405180910390f35b60045481565b60015481565b600560009054906101000a900460ff1681565b6000809054906101000a900473ffffffffffffffffffffffffffffffffffffffff1673ffffffffffffffffffffffffffffffffffffffff163373ffffffffffffffffffffffffffffffffffffffff1614151561043c57600080fd5b6000809054906101000a900473ffffffffffffffffffffffffffffffffffffffff1673ffffffffffffffffffffffffffffffffffffffff167ff8df31144d9c2f0f6b59d69b8b98abd5459d07f2742c4df920b25aae33c6482060405160405180910390a260008060006101000a81548173ffffffffffffffffffffffffffffffffffffffff021916908373ffffffffffffffffffffffffffffffffffffffff160217905550565b6000806000806000806104f4611bc6565b6006600089815260200190815260200160002060c0604051908101604052908160008201606060405190810160405290816000820160009054906101000a900460ff16600281111561054257fe5b600281111561054d57fe5b81526020016001820154600019166000191681526020016002820160009054906101000a900473ffffffffffffffffffffffffffffffffffffffff1673ffffffffffffffffffffffffffffffffffffffff1673ffffffffffffffffffffffffffffffffffffffff1681525050815260200160038201606060405190810160405290816000820160009054906101000a900460ff1660028111156105ec57fe5b60028111156105f757fe5b81526020016001820154600019166000191681526020016002820160009054906101000a900473ffffffffffffffffffffffffffffffffffffffff1673ffffffffffffffffffffffffffffffffffffffff1673ffffffffffffffffffffffffffffffffffffffff16815250508152602001600682015481526020016007820160009054906101000a900473ffffffffffffffffffffffffffffffffffffffff1673ffffffffffffffffffffffffffffffffffffffff1673ffffffffffffffffffffffffffffffffffffffff1681526020016007820160149054906101000a900460ff161515151581526020016007820160159054906101000a900460ff1615151515815250509050806000015160400151816000015160000151826020015160400151836020015160000151846040015185606001519650965096509650965096505091939550919395565b6000809054906101000a900473ffffffffffffffffffffffffffffffffffffffff1681565b60025481565b6000600660008481526020019081526020016000209050600073ffffffffffffffffffffffffffffffffffffffff168160000160020160009054906101000a900473ffffffffffffffffffffffffffffffffffffffff1673ffffffffffffffffffffffffffffffffffffffff1614151515610851576040517f08c379a00000000000000000000000000000000000000000000000000000000081526004018080602001828103825260148152602001807f526f756e6420646f6573206e6f7420657869737400000000000000000000000081525060200191505060405180910390fd5b600073ffffffffffffffffffffffffffffffffffffffff168160030160020160009054906101000a900473ffffffffffffffffffffffffffffffffffffffff1673ffffffffffffffffffffffffffffffffffffffff161480156108c357508060070160149054906101000a900460ff16155b1515610937576040517f08c379a00000000000000000000000000000000000000000000000000000000081526004018080602001828103825260168152602001807f526f756e6420616c72656164792066696e69736865640000000000000000000081525060200191505060405180910390fd5b806006015434101515156109d9576040517f08c379a00000000000000000000000000000000000000000000000000000000081526004018080602001828103825260218152602001807f53656e64206174206c65617374207468652073616d652062657420616d6f756e81526020017f740000000000000000000000000000000000000000000000000000000000000081525060400191505060405180910390fd5b3373ffffffffffffffffffffffffffffffffffffffff166108fc826006015434039081150290604051600060405180830381858888f19350505050158015610a25573d6000803e3d6000fd5b50338160030160020160006101000a81548173ffffffffffffffffffffffffffffffffffffffff021916908373ffffffffffffffffffffffffffffffffffffffff160217905550818160030160000160006101000a81548160ff02191690836002811115610a8f57fe5b0217905550610a9d8361111e565b505050565b6000809054906101000a900473ffffffffffffffffffffffffffffffffffffffff1673ffffffffffffffffffffffffffffffffffffffff163373ffffffffffffffffffffffffffffffffffffffff16141515610afd57600080fd5b600560009054906101000a900460ff16151515610b82576040517f08c379a00000000000000000000000000000000000000000000000000000000081526004018080602001828103825260148152602001807f47616d6520616c7265616479207374617274656400000000000000000000000081525060200191505060405180910390fd5b3073ffffffffffffffffffffffffffffffffffffffff163160015411151515610c13576040517f08c379a000000000000000000000000000000000000000000000000000000000815260040180806020018281038252601d8152602001807f4a61636b706f74206c6f776572207468616e2053432062616c616e636500000081525060200191505060405180910390fd5b6002543073ffffffffffffffffffffffffffffffffffffffff163110158015610c40575060025460015410155b1515610cda576040517f08c379a000000000000000000000000000000000000000000000000000000000815260040180806020018281038252602b8152602001807f4d696e696d756d204a61636b706f74206973206e656564656420666f7220737481526020017f617274696e672067616d6500000000000000000000000000000000000000000081525060400191505060405180910390fd5b6001600560006101000a81548160ff021916908315150217905550565b34600160008282540192505081905550565b6000809054906101000a900473ffffffffffffffffffffffffffffffffffffffff1673ffffffffffffffffffffffffffffffffffffffff163373ffffffffffffffffffffffffffffffffffffffff16141515610d6457600080fd5b610d6d81611502565b50565b600080600560009054906101000a900460ff161515610e1d576040517f08c379a000000000000000000000000000000000000000000000000000000000815260040180806020018281038252602c8152602001807f46756e6374696f6e20617661696c61626c65206f6e6c79207768656e2067616d81526020017f652069732072756e6e696e67000000000000000000000000000000000000000081525060400191505060405180910390fd5b6003543410151515610e97576040517f08c379a00000000000000000000000000000000000000000000000000000000081526004018080602001828103825260158152602001807f4e6f7420656e6f75676820616d6f756e7420626574000000000000000000000081525060200191505060405180910390fd5b6004600081548092919060010191905055506006600060045481526020019081526020016000209050338160000160020160006101000a81548173ffffffffffffffffffffffffffffffffffffffff021916908373ffffffffffffffffffffffffffffffffffffffff160217905550828160000160000160006101000a81548160ff02191690836002811115610f2957fe5b0217905550348160060181905550838160070160156101000a81548160ff0219169083151502179055508060000160020160009054906101000a900473ffffffffffffffffffffffffffffffffffffffff1673ffffffffffffffffffffffffffffffffffffffff167f8389bfa2bbb86e9db6331f9776a5195e5a139efab722a28a59cf7a84669fb58e60045483600601548460000160000160009054906101000a900460ff1660405180848152602001838152602001826002811115610feb57fe5b60ff168152602001935050505060405180910390a28060070160159054906101000a900460ff1615611112576001543411151515611091576040517f08c379a000000000000000000000000000000000000000000000000000000000815260040180806020018281038252600c8152602001807f42657420746f6f2068696768000000000000000000000000000000000000000081525060200191505060405180910390fd5b308160030160020160006101000a81548173ffffffffffffffffffffffffffffffffffffffff021916908373ffffffffffffffffffffffffffffffffffffffff1602179055506110df6115fc565b8160030160000160006101000a81548160ff0219169083600281111561110157fe5b021790555061111160045461111e565b5b60045491505092915050565b60006006600083815260200190815260200160002090508060070160149054906101000a900460ff161515156111bc576040517f08c379a00000000000000000000000000000000000000000000000000000000081526004018080602001828103825260148152602001807f526f756e6420616c726561647920636c6f73656400000000000000000000000081525060200191505060405180910390fd5b61130e81600001606060405190810160405290816000820160009054906101000a900460ff1660028111156111ed57fe5b60028111156111f857fe5b81526020016001820154600019166000191681526020016002820160009054906101000a900473ffffffffffffffffffffffffffffffffffffffff1673ffffffffffffffffffffffffffffffffffffffff1673ffffffffffffffffffffffffffffffffffffffff168152505082600301606060405190810160405290816000820160009054906101000a900460ff16600281111561129257fe5b600281111561129d57fe5b81526020016001820154600019166000191681526020016002820160009054906101000a900473ffffffffffffffffffffffffffffffffffffffff1673ffffffffffffffffffffffffffffffffffffffff1673ffffffffffffffffffffffffffffffffffffffff1681525050611623565b8160070160006101000a81548173ffffffffffffffffffffffffffffffffffffffff021916908373ffffffffffffffffffffffffffffffffffffffff160217905550611359826116b2565b7f7d8b4a984b7fa465226fb3cb2eb9c5110227b5afed1649f904bbdb67bc9a2dd9828260070160009054906101000a900473ffffffffffffffffffffffffffffffffffffffff1683600601548460000160020160009054906101000a900473ffffffffffffffffffffffffffffffffffffffff168560000160000160009054906101000a900460ff168660030160020160009054906101000a900473ffffffffffffffffffffffffffffffffffffffff168760030160000160009054906101000a900460ff16604051808881526020018773ffffffffffffffffffffffffffffffffffffffff1673ffffffffffffffffffffffffffffffffffffffff1681526020018681526020018573ffffffffffffffffffffffffffffffffffffffff1673ffffffffffffffffffffffffffffffffffffffff16815260200184600281111561149f57fe5b60ff1681526020018373ffffffffffffffffffffffffffffffffffffffff1673ffffffffffffffffffffffffffffffffffffffff1681526020018260028111156114e557fe5b60ff16815260200197505050505050505060405180910390a15050565b600073ffffffffffffffffffffffffffffffffffffffff168173ffffffffffffffffffffffffffffffffffffffff161415151561153e57600080fd5b8073ffffffffffffffffffffffffffffffffffffffff166000809054906101000a900473ffffffffffffffffffffffffffffffffffffffff1673ffffffffffffffffffffffffffffffffffffffff167f8be0079c531659141344cd1fd0a4f28419497f9722a3daafe3b4186f6b6457e060405160405180910390a3806000806101000a81548173ffffffffffffffffffffffffffffffffffffffff021916908373ffffffffffffffffffffffffffffffffffffffff16021790555050565b6000600360014303406001900481151561161257fe5b06600281111561161e57fe5b905090565b60008160000151600281111561163557fe5b600360018560000151600281111561164957fe5b0181151561165357fe5b06141561166657816040015190506116ac565b8160000151600281111561167657fe5b600360028560000151600281111561168a57fe5b0181151561169457fe5b0614156116a757826040015190506116ac565b600090505b92915050565b6000806000806006600086815260200190815260200160002093508360070160009054906101000a900473ffffffffffffffffffffffffffffffffffffffff1692508360070160149054906101000a900460ff1615151561177b576040517f08c379a00000000000000000000000000000000000000000000000000000000081526004018080602001828103825260148152602001807f526f756e6420616c726561647920636c6f73656400000000000000000000000081525060200191505060405180910390fd5b60018460070160146101000a81548160ff02191690831515021790555060015491503073ffffffffffffffffffffffffffffffffffffffff163190508360070160159054906101000a900460ff161561199f57600073ffffffffffffffffffffffffffffffffffffffff168373ffffffffffffffffffffffffffffffffffffffff16141561187a578360000160020160009054906101000a900473ffffffffffffffffffffffffffffffffffffffff1673ffffffffffffffffffffffffffffffffffffffff166108fc85600601549081150290604051600060405180830381858888f19350505050158015611874573d6000803e3d6000fd5b5061199a565b3073ffffffffffffffffffffffffffffffffffffffff168373ffffffffffffffffffffffffffffffffffffffff1614156118c7578360060154600160008282540192505081905550611999565b83600601546001600082825403925050819055508273ffffffffffffffffffffffffffffffffffffffff166108fc85600601546002029081150290604051600060405180830381858888f19350505050158015611928573d6000803e3d6000fd5b507fd4f43975feb89f48dd30cabbb32011045be187d1e11c8ea9faa43efc35282519838560060154604051808373ffffffffffffffffffffffffffffffffffffffff1673ffffffffffffffffffffffffffffffffffffffff1681526020018281526020019250505060405180910390a15b5b611b7c565b600073ffffffffffffffffffffffffffffffffffffffff168373ffffffffffffffffffffffffffffffffffffffff161415611abd578360000160020160009054906101000a900473ffffffffffffffffffffffffffffffffffffffff1673ffffffffffffffffffffffffffffffffffffffff166108fc85600601549081150290604051600060405180830381858888f19350505050158015611a45573d6000803e3d6000fd5b508360030160020160009054906101000a900473ffffffffffffffffffffffffffffffffffffffff1673ffffffffffffffffffffffffffffffffffffffff166108fc85600601549081150290604051600060405180830381858888f19350505050158015611ab7573d6000803e3d6000fd5b50611b7b565b8273ffffffffffffffffffffffffffffffffffffffff166108fc85600601546002029081150290604051600060405180830381858888f19350505050158015611b0a573d6000803e3d6000fd5b507fd4f43975feb89f48dd30cabbb32011045be187d1e11c8ea9faa43efc35282519838560060154604051808373ffffffffffffffffffffffffffffffffffffffff1673ffffffffffffffffffffffffffffffffffffffff1681526020018281526020019250505060405180910390a15b5b8360060154600202820360015410158015611bb75750836006015460020281033073ffffffffffffffffffffffffffffffffffffffff163110155b1515611bbf57fe5b5050505050565b61014060405190810160405280611bdb611c24565b8152602001611be8611c24565b815260200160008152602001600073ffffffffffffffffffffffffffffffffffffffff1681526020016000151581526020016000151581525090565b60606040519081016040528060006002811115611c3d57fe5b815260200160008019168152602001600073ffffffffffffffffffffffffffffffffffffffff16815250905600a165627a7a72305820781690cc32b0a95051261dadd8e37c7d117679806006b4d5eb640ecd77521e770029",
  "source": "pragma solidity ^0.4.25;\n\nimport \"zeppelin-solidity/contracts/ownership/Ownable.sol\";\n\n\ncontract RPS is Ownable {\n    \n    uint public jackpot;\n    uint public minJackpot = 1 ether;\n    uint mininumBet = 0.0001 ether;\n    uint public roundCount;\n    bool public gameRunning;\n\n    /* Not used yet\n    uint maxJackpot;\n    uint businessFee;\n    uint jackpotFee;\n    */\n    \n    enum Choice { Rock, Paper, Scissors }\n    \n    struct Player {\n        Choice choice;\n        bytes32 playerHash;\n        address playerAddress;\n    }\n    \n    struct Round {\n        Player player1;\n        Player player2;\n        uint betAmount;\n        address winner;\n        bool isClosed;\n        bool isSolo;\n    }\n    \n    mapping(uint=>Round) rounds;\n    \n    // We could add another mapping to check rounds per address:\n    // mapping(address=>uint[])\n    \n    event RoundCreated(\n        uint roundId,\n        uint betAmount, \n        address indexed player1, \n        Choice choice1\n    ); // possibility to used indexes\n\n    event RoundResolved(\n        uint roundId, \n        address winner, \n        uint betAmount, \n        address player1, \n        Choice choice1, \n        address player2, \n        Choice choice2\n    );\n\n    event Payment(address paidAddress, uint amount);\n    event LotteryPlayed(address winner, uint jackpot);\n\n    modifier gameIsRunning() {\n        require(gameRunning, \"Function available only when game is running\");\n        _;\n    }\n    \n    constructor() public payable {\n        // We could handle games through constructor and setting variables like\n        // minimum bet, max jackpot, fees, etc.\n    }\n\n    // Fallback, just in case of receiving funds, to the jackpot\n    function () public payable {\n        jackpot += msg.value;\n    }\n\n    function getRoundInfo(\n        uint roundId\n    )\n        external\n        view\n        returns(\n            address player1Address,\n            Choice player1Choice,\n            address player2Address,\n            Choice player2Choice,\n            uint betAmount,\n            address winner\n        )\n    {\n        Round memory myRound = rounds[roundId];\n        return (\n            myRound.player1.playerAddress,\n            myRound.player1.choice,\n            myRound.player2.playerAddress,\n            myRound.player2.choice,\n            myRound.betAmount,\n            myRound.winner\n        );\n    }\n    \n    function fundGame() public payable {\n        jackpot += msg.value;\n    }\n    \n    function startGame() public onlyOwner {\n        require(!gameRunning, \"Game already started\");\n        require(jackpot <= address(this).balance, \"Jackpot lower than SC balance\");  // We might omit this check\n        require((address(this).balance >= minJackpot) && (jackpot >= minJackpot), \"Minimum Jackpot is needed for starting game\");\n        gameRunning = true;\n    }\n    \n    function createRound(bool _isSolo, Choice _choice) \n        public \n        gameIsRunning\n        payable\n        returns(uint)\n    {\n        require(msg.value >= mininumBet, \"Not enough amount bet\");\n\n        roundCount++;\n        Round storage round = rounds[roundCount];\n        round.player1.playerAddress = msg.sender;\n        round.player1.choice = _choice;\n        round.betAmount = msg.value;\n        round.isSolo = _isSolo;\n\n        emit RoundCreated(\n            roundCount, \n            round.betAmount, \n            round.player1.playerAddress, \n            round.player1.choice\n        );\n        \n        if (round.isSolo) {\n            require(msg.value <= jackpot, \"Bet too high\");\n            round.player2.playerAddress = address(this);\n            round.player2.choice = getRandomChoice();\n            _resolveRound(roundCount);\n        }\n\n        return roundCount;\n    }\n\n    // It's safe enough that we provide the choice to be part of enum or maybe there\n    // is any trick to be able to provide something out of choices? Maybe it's better to\n    // add a check to see if in its range\n    function joinRound(uint _roundId, Choice _choice) public payable {\n        Round storage myRound = rounds[_roundId];  // Pointer to round\n        require(myRound.player1.playerAddress != address(0), \"Round does not exist\");\n        require(myRound.player2.playerAddress == address(0) && !myRound.isClosed, \"Round already finished\");\n        require(msg.value >= myRound.betAmount, \"Send at least the same bet amount\");\n\n        // Send back the excess of the amount sent minus the real bet amount\n        // Use Safe Math, althouth this should never be overflow bc substract uints is another uint\n        // Using transfer should prevent from fallback reentrancy, but...\n        // Also, a reentrancy would have to send more value than betAmount, I think an attack has no sense\n        // but I would have to analyze it a bit more.\n        msg.sender.transfer(msg.value - myRound.betAmount);  \n        \n        myRound.player2.playerAddress = msg.sender;\n        myRound.player2.choice = _choice;\n        _resolveRound(_roundId);\n    }\n    \n    // Change randomness in case we want it to be realistic. Probably it needs Oraclize.\n    function getRandomChoice() internal view returns(Choice){\n        return Choice(uint(blockhash(block.number - 1)) % 3);\n    }\n\n    function _resolveRound(uint _roundId) private {\n        Round storage myRound = rounds[_roundId];  // Pointer to round\n        require(!myRound.isClosed, \"Round already closed\");\n        myRound.winner = _checkWinner(myRound.player1, myRound.player2);\n        _payWinner(_roundId);\n        emit RoundResolved(\n            _roundId,\n            myRound.winner,\n            myRound.betAmount,\n            myRound.player1.playerAddress,\n            myRound.player1.choice,\n            myRound.player2.playerAddress,\n            myRound.player2.choice\n        );\n    }\n    \n    function _payWinner(uint _roundId) private {  // Maybe it can return true or false for the lottery\n        // We might want to add some checkers, requires or asserts, to see that the value \n        // trasnfered is what it is...\n\n        Round storage myRound = rounds[_roundId];  // Pointer to round\n        address winner = myRound.winner;\n        \n        // I think this is necessary to avoid possible reentrancy attacks (although we're using transfer).\n        // I also think we are protected since this function is private, the one which calls this one is\n        // also private and the parent you need to send value to join round.\n        require(!myRound.isClosed, \"Round already closed\");\n        myRound.isClosed = true;\n\n        uint inititalJackpot = jackpot;\n        uint initialBalance = address(this).balance;\n\n        if(myRound.isSolo) {  // 1 player mode\n            if (winner == address(0)){  // Draw, player recevies what he bet\n                myRound.player1.playerAddress.transfer(myRound.betAmount);\n            } else if (winner == address(this)) {  // Player looses, bet to jackpot\n                jackpot += myRound.betAmount;  \n            } else {  // Player wins\n                jackpot -= myRound.betAmount;\n                winner.transfer(2 * myRound.betAmount);\n                emit Payment(winner, myRound.betAmount);\n            }\n        } else { // 2 players mode\n            if (winner == address(0)){  // Draw, players receive what they bet\n                myRound.player1.playerAddress.transfer(myRound.betAmount);\n                myRound.player2.playerAddress.transfer(myRound.betAmount);\n            } else {  // Bet to the winner\n                winner.transfer(2 * myRound.betAmount);\n                emit Payment(winner, myRound.betAmount);\n            }\n        }\n\n        // Additional check por security for reentrancy (kind of formal verification)\n        // These additional checks may not be necessary since we are using transfer that limits gas to 2300, \n        // so in the final deployment we could ommit all these additional checks in order to save same uncessary gas\n        assert((jackpot >= inititalJackpot - (2 * myRound.betAmount)) && (address(this).balance >= initialBalance - (2 * myRound.betAmount))); \n    }\n    \n    function _checkWinner(Player player1, Player player2) private pure returns(address) {\n        if ((uint(player1.choice) + 1) % 3 == uint(player2.choice)) {\n            return player2.playerAddress;\n        } else if ((uint(player1.choice) + 2) % 3 == uint(player2.choice)) {\n            return player1.playerAddress;\n        } else {\n            return address(0);\n        }\n    }\n    \n    // Careful to call this function only when there is no round without result\n    // function playLottery() internal {}\n}\n",
  "sourcePath": "/home/rggentil/Documents/master_ethereum/design_and_development/modulo4/mydapp/RPS/contracts/RPS.sol",
  "compiler": {
    "name": "solc",
    "version": "0.4.25+commit.59dbf8f1.Emscripten.clang"
  },
  "schemaVersion": "2.0.1",
  "updatedAt": "2018-11-13T10:21:42.451Z"
}